:100000000C94F90D0C94210E0C94210E0C94210EDD
:100010000C94210E0C94210E0C94210E0C94210EA4
:100020000C94210E0C94210E0C94682B0C94EF2B45
:100030000C94210E0C94210E0C94210E0C94210E84
:100040000C94210E0C94210E0C94210E0C94210E74
:100050000C94210E0C94210E0C94210E0C947C26F1
:100060000C94210E0C94210E0C94210E0C94210E54
:100070000C94210E0C94210E0C94210E0C94210E44
:100080000C94210E0C94210E0C94210E0C94210E34
:100090000C94210E0C94210E0C94210E0C94210E24
:1000A0000C94210E0C94210E0C94210E200F250F80
:1000B0002E0F3A0F460F4F0F540F5E0F680F6D0F44
:1000C000750F00007B0F800F850F8A0F8F0F940F25
:1000D000990F9E0FA30FA80FAD0FB20FB70FBC0F54
:1000E000C10FC60FCB0FD00FD50FDA0FDF0FE40F04
:1000F000E90FEE0FF30FF80FFD0F021007100C10B1
:10010000111016101B10201025102A102F1035105A
:100110003B105110741092109810B710CF10DF10D0
:10012000E51002111211271133113B113C1141113D
:1001300048115711681174118B119D11AB11BB112E
:10014000DB11EA11FC110912191221122A125112A3
:1001500068129012A812AE12D312FC1208130E13DA
:1001600035135913721387139113A013AB13B913DB
:10017000CE13DB13E313EE130D141A1429143514E4
:10018000421467148314A514B714DA14EB14EC1496
:10019000FE1410151B1535154015551560156815FD
:1001A000701578158015881590159815A415BB1530
:1001B000CE15E215E815F81500000000000000005B
:1001C0003FFFFFFFFFFFFFFC7FFFFFFFFFFFFFFE83
:1001D0007FFFFFFFFFFFFFFE700000000000000E2A
:1001E000700000000000000E700000000000000E13
:1001F000700000000000000E700000000000000E03
:100200007000F0000000000E7003F8000000000E07
:100210007007FC000000000E700FFC000000000ED4
:10022000701FFC000000000E703FFC000007800EF5
:10023000703FFC00000FC00E707FF800001FC00E62
:10024000707FF000003FC00E707FE000007FC00EA6
:10025000707FC00000FF800E703F83C001FF000E62
:10026000701F07E003FE000E70000FF007FC000E89
:1002700070000FF00FF8000E70000FF01FF0000E6E
:1002800070000FF03FE0000E700007E07FC0000E2E
:10029000700003C0FF80000E70000001FF00000E20
:1002A00070000003FE00000E70000007FC00000E4E
:1002B0007000000FF800000E7000001FF800000E24
:1002C0007000003FF000000E7000007FE000000EA4
:1002D000700000FFC000000E700001FF81C0000E22
:1002E000700003FF07E0000E700007FE0FF0000E25
:1002F00070000FFC0FF0000E70001FF80FF0000EE2
:1003000070003FF00FF0000E70007FE007F0780EF5
:100310007000FFC007E0FC0E7001FF800181FE0E3F
:100320007003FF000003FE0E7003FE000007FE0EC8
:100330007003F800000FFE0E7003F000001FFE0EA9
:100340007003E000003FFC0E7000C000003FF80E9C
:1003500070000000003FF00E70000000003FE00E53
:1003600070000000001FC00E70000000000F800E23
:10037000700000000000000E700000000000000E81
:10038000700000000000000E700000000000000E71
:10039000700000000000000E7FFFFFFFFFFFFFFE68
:1003A0007FFFFFFFFFFFFFFE3FFFFFFFFFFFFFFCA1
:1003B0000000000000000000000000000000001F1E
:1003C000FFF000000000000000000010001000001E
:1003D00000000000000000100010000000000000FD
:1003E00000000010001000000000000000003FFEB0
:1003F000001FC0000000000000003FFE00004000A1
:100400000000000000003FFE00004000000000006F
:1004100000003FFE00007C00000000000007FFFF1E
:10042000E07C0400000000000007FFFFE04404003F
:10043000000000000007FFFFE0440400000000008F
:100440000007FFFFE0440400000000000007FFFF7A
:10045000FFC404000000000000003FFFFF04040090
:100460000000000000003FFFFF0404000000000047
:1004700000003FFFFF0404000000000000003FFFF9
:10048000E00407000000000000002881E0040100F3
:100490000000000000002881E004010000000000CE
:1004A00001FFE881E0FF81000000000001100F81E2
:1004B000E0FF81F00000000001100F81E0FF8010DC
:1004C00000000000011FEF81E0FF8010000000002D
:1004D00001102F81E7FF80100000000001102F8025
:1004E00007FFFF10000000000110200007FF81102F
:1004F000000000000110200007FF81100FFFFFFF28
:10050000FF1FE001FFFFC1F00FFFFFFFFF10000121
:10051000000040000FFFFFFFFF100001000040003F
:100520000FFFFFFFFF100001000040000FFFFFFF63
:10053000FF10007FFFFE7E007FFFFFFFFF10007FA8
:10054000FFFE02007FFFFFFFFF10007FFFFE0200A3
:100550007FFFFFFFFF10007FFFFE02000FFFFFFF86
:10056000FF13E07FFFFE02000FFFFFFFFF12207F5F
:10057000FFFFE2000FFFFFFFFF12207FFFFFE200FF
:100580000FFFFFFFFF12207FFFFFE2000FFFFFFFC3
:10059000FF1FFFFFFFFFE3C0000000000110007F0E
:1005A000FFFFE040000000000110007FFFFFE0407F
:1005B000000000000110007FFFFFE040000000008D
:1005C00001101FFFFFFFE07800000000011E1F80E8
:1005D0001FFC00080000000001021F801FFC000833
:1005E0000000000001021F801FFC00080000000046
:1005F00001FE1FFFF000007F0000000000001FFF51
:10060000F000007F0000000000001FFFF000007FEE
:100610000000000000001FFFF000007F000000004D
:100620000003FFFFF00003FF000000000003FC00D8
:10063000000003FF000000000003FC00000003FFB7
:10064000000000000003FC00000003FF00000000A9
:10065000007FFFFFFFFFFFFF00000000007FFF8023
:1006600000003FF800000000007FFF8000003FF81E
:1006700000000000007FFF8000003FF80000000045
:10068000000000000000000000000000000000006A
:10069000000000000000000000000000000000005A
:1006A000000000000000000000000000000000004A
:1006B000000000000000000000000000000000003A
:1006C000000000000000000000000000000000002A
:1006D000000000000000000000000000000000001A
:1006E0000000000000003FE00FFFF007FC000020CA
:1006F000200800100404000020200800100404005A
:1007000000203C78001E3C04000020044FFFF22033
:1007100004000020044FFFF22004000020044FFFDB
:10072000F2200400003FFFFFFFFFFFFC00003FE658
:100730007FFFFE67FC00003FE67FFFFE67FC0000D6
:100740003FFFFFFFFFFFFC00003FE3FFFFFFC7FC91
:1007500000003FE3FFFFFFC7FC00003FE3FFFFFF98
:10076000C7FC00003FE3FFFFFFC7FC00003FE38939
:100770000091C7FC00003FE3890091C7FC00003FE7
:10078000E38F00F1C7FC00003FE00F00F007FC0022
:10079000003FE00F00F007FC00003FE00F00F00713
:1007A000FC000001FC0000003F80000001FC000094
:1007B000003F80000001FC0000003F80000001FFBE
:1007C00080FF01FF80000001FF80FF01FF8000002B
:1007D00001FF80FF01FF80000001FFB0FF0DFF80DF
:1007E0000000003FC8FF13FC000000003FC8FF13DB
:1007F000FC000000003FC8FF13FC000000003FCFDA
:10080000FFF3FC000000003C0000003C0000000082
:100810003C0000003C000000003C0000003C0000E8
:100820000000200000000400000000200000000480
:1008300000000000200000000400000000200FFF66
:10084000F00400000000200FFFF004000000002072
:100850000FFFF004000000003FFFFFFFFC0000005E
:10086000003FFF00FFFC000000003FFF00FFFC0016
:100870000000003FFF00FFFC00000000200FFFF021
:100880000400000000200FFFF00400000000200F13
:10089000FFF00400000000200FFFF0040000000043
:1008A0002000000004000000002000000004000000
:1008B00000003FFFFFFFFC0000000003FF00FFC03F
:1008C0000000000003FF00FFC00000000003FF0065
:1008D000FFC00000000003FF00FFC0000000000395
:1008E000FF00FFC00000000003FF00FFC000000089
:1008F0000003FF00FFC00000000000000000000037
:100900007FFFC073E007FFFE7FFFC073E007FFFEBD
:100910006001CE707F07000E6001CE707F07000E71
:1009200067F9C00383073FCE67F9C00383073FCE53
:1009300067F9C00383073FCE67F9CFF3FCE73FCEEB
:1009400067F9CFF3FCE73FCE67F9C18000073FCEE0
:1009500067F9C18000073FCE67F9C18000073FCE2D
:100960006001CF8FE307000E6001CF8FE307000E19
:100970007FFFCE739CE7FFFE7FFFCE739CE7FFFEF9
:100980007FFFCE739CE7FFFE000001FC1F0000000C
:10099000000001FC1F0000007FF9FF8C7CF8C630CE
:1009A0007FF9FF8C7CF8C6307FF9FF8C7CF8C6306D
:1009B00060C00E73E018C00060C00E73E018C00085
:1009C000783FFE707F07FE3E783FFE707F07FE3E59
:1009D000783FFE707F07FE3E003E0E039F00F83E0C
:1009E000003E0E039F00F83E07F9FFF3FFFF3FCEE6
:1009F00007F9FFF3FFFF3FCE07F9FFF3FFFF3FCEFD
:100A0000783E318060E0C000783E318060E0C00018
:100A10006007C18F9FE0F9FE6007C18F9FE0F9FE7C
:100A20006007C18F9FE0F9FE67000E7C1CF8C000D4
:100A300067000E7C1CF8C000603FC1FC00FFFFCEC9
:100A4000603FC1FC00FFFFCE603FC1FC00FFFFCE56
:100A500000000FF3E3E0380000000FF3E3E038009C
:100A60007FFFCE707CE7383E7FFFCE707CE7383E5C
:100A70007FFFCE707CE7383E6001C1F3E0E0383E96
:100A80006001C1F3E0E0383E67F9CF839FFFF9FED4
:100A900067F9CF839FFFF9FE67F9CF839FFFF9FEC8
:100AA00067F9CE00031FFE3E67F9CE00031FFE3E2E
:100AB00067F9CF8F83F8C1CE67F9CF8F83F8C1CEA6
:100AC00067F9CF8F83F8C1CE6001CF8C1FE73E0E50
:100AD0006001CF8C1FE73E0E7FFFCE7C0018FFFE2B
:100AE0007FFFCE7C0018FFFE7FFFCE7C0018FFFE4C
:100AF00000000000000000000000000000000000F6
:100B000000000000000000000000000000000000E5
:100B10000000000000000000000000001FF9C1E319
:100B2000FE07FE0FE0FF87071FF9C1E3FE07FE0F78
:100B3000E0FF870703C1C1E70780F03C79C1E7C741
:100B400003C1C1E70780F03C79C1E7F703C1C1E702
:100B50000780F07001C1E7F703C1FFE70780F0707D
:100B600001C1E7FF03C1FFE70780F07001C1E7FFA4
:100B700003C1C1E70780F07001C1E73F03C1C1E7CE
:100B80000780F03C79C1E73F03C1C1E70780F03C33
:100B900079C1E70F03C1C1E3FE00F00FE0FF870753
:100BA00003C1C1E3FE00F00FE0FF87070000000073
:100BB0000000000000000000000000000000000035
:100BC0000000000000000000000000000000000025
:100BD0000000000000000000000000000000000015
:100BE0000000000000000000000000000000000005
:100BF0000000000000000000000000000F0383CF91
:100C0000FC0F0383CFFC31C3E7CE0031C1E70FFCFB
:100C1000F0F1FF0FFCF0F07E000FF0F07E000FF01F
:100C2000F1FF000F38C1E70E0F38C3E7CE0F0F03F7
:100C300083C7FC0F0383C7FC000000000000000016
:100C40000000000000000000000000002020204202
:100C50002020202020202020412020202000202093
:100C6000204E6F2020202020205965732020200056
:100C700049732069742050617274792054696D65DC
:100C80003F004368696361676F2C20494C20363010
:100C9000363534003536205720496C6C696E6F69E3
:100CA0007320537400546865556E64657267726F83
:100CB000756E6400536174757264617920342F32EB
:100CC00036004146544552504152545900776F7294
:100CD0006B73686F7038382E636F6D006261646784
:100CE00065732028646F74290052656769737465A1
:100CF0007220486572653A00000F00000000000095
:100D000000090000000000000009000000000000D1
:100D100000090000000000000030C00000000000DA
:100D20000020400000000000002040000000000003
:100D3000002040000000000000C030000000000063
:100D40000080100000000000008010000000000083
:100D5000008010000000000003000C0000000000F4
:100D60000200040000000000020004000000000077
:100D700002000400000000000C000300000000005E
:100D80000800010000000000080001000000000051
:100D90000FFFFF0000000000F04020F00000000006
:100DA00090C03090000000008D3FCB10000000008C
:100DB000873FCC1000000000FAFFF7F000000000B1
:100DC0009EFFF7900000000093000C9000000000D0
:100DD00093000C90000000009030C09000000000D4
:100DE0009030C090000000004C0003200000000084
:100DF0004400022000000000430F0C20000000000F
:100E0000410F08200000000041CF38200000000002
:100E10004140282000000000323FC4C00000000014
:100E20001200048000000000120004800000000096
:100E30001C00038000000000103FC0800000000084
:100E4000103FC080000000001FF0FF800000000085
:100E50001FF0FF8000000000103FC0800000000075
:100E6000103FC08000000000100000800000000063
:100E700010000080000000000FFFFF0000000000D5
:100E800003F0FC000000000003F0FC000000000084
:100E900003F0FC0000000000000000000000000063
:100EA0000000000000000000000000000000000042
:100EB0000000000000000000000000000000000032
:100EC0000000000000000000000000000000000022
:100ED0000000000000000000000000000000000012
:100EE0000000000000000000000000000000000002
:100EF0000000000000000000434F4D504C45544599
:100F0000210053434F52453A200047414D45204F61
:100F10005645520054484F54434F4E2030783500C8
:100F200047616D65005363686564756C6500503199
:100F30002047616D654C696E6B0050322047616DD2
:100F4000654C696E6B005265676973746572004821
:100F5000656C7000547261636B204F6E6500547253
:100F600061636B2054776F004C6162730056696C4B
:100F70006C616765005061727479003038333000FD
:100F800030393435003130303000313130300031DB
:100F900032303000313330300031343030003135D0
:100FA00030300031363030003137303000313733B7
:100FB00030003138333000313933300032303330A3
:100FC00000323130300032313230003131303000D7
:100FD0003131333000313230300031323330003192
:100FE000333030003134333000313530300031357A
:100FF0003330003136303000313633300031373065
:10100000300031373330003138303000313130305A
:101010000031323030003133303000313430300084
:101020003136303000313730300031383030004424
:101030004F4F52530048454C4C4F0055464F730A92
:1010400020616E64200A476F7665726E6D656E74FE
:101050000043726F7764736F757263696E670A59C4
:101060006F757220436973636F0A466972657761B1
:101070006C6C73004A75737420576861740A546805
:101080006520446F63746F720A4F726465726564A1
:101090003F00425245414B005468652050657266DE
:1010A0006563746C790A4C6574696D617465205070
:1010B000726F6A6563740049742041696E27740A0F
:1010C000526F636B657420536369656E6365004995
:1010D0006E74726F647563696E6720696462004242
:1010E0005245414B005375727665696C6C696E6749
:1010F0002049500A436572612053656375726974B3
:1011000079005068697368696E67204672656E7A07
:101110007900427265616B696E67204275730A548B
:1011200069636B657473004841434B4552204252DA
:10113000455700434C4F53494E4700004F50454ED2
:10114000006337666976650052696368617264207E
:10115000546869656D6500436C61756469757320D9
:10116000262620477561790053636F747420457299
:1011700076656E00204452494E4B20424545520A46
:1011800045415420464F4F445320004F27436F6E34
:101190006E6F7220262620446F626265004461767D
:1011A0006964204D6F72746D616E0044616E696593
:1011B0006C20412E204D6179657200204452494EC9
:1011C0004B204D4F524520424545520A454154203F
:1011D0004D4F524520464F4F4420004D61726B20C9
:1011E0005374616E69736C6F76004D6343616E6E0C
:1011F000200A2052696E67776F6F64004D696B65D6
:10120000204A61636B736F6E00434F4E54455354D5
:1012100020524553554C54530052454D41524B5367
:101220000053595336343733380044696769746959
:10123000616C2041747461636B730A696E20746819
:10124000650A506879736963616C205265616C6DE1
:1012500000576972656C6573730A44726F6E65201E
:10126000537472696B657300506F6B696E672054BD
:1012700068726F7567680A746F20746865204865C6
:101280006172740A6F6620612042696E6172790032
:10129000526574726F6163746976650A5769726525
:1012A00074617070696E6700425245414B00596F1E
:1012B000757220506572736F6E616C0A496E666F4D
:1012C000726D6174696F6E0A4973204F6E6C696E3E
:1012D000653F00456C656374726F6E69630A4465AF
:1012E000766963652053656172636865730A61742A
:1012F0002074686520426F7264657200502E492E1A
:10130000532E532E452E4400425245414B005472F9
:1013100061697473204265747765656E0A41205374
:101320006F6320456E670A26206120536F63696FE3
:101330007061746800313020436F6D6D616E646D53
:10134000656E74730A6F662049520A28466F7220D0
:101350004861636B657273290059656C6C696E67CF
:101360002061740A6D616E6167656D656E742E2E05
:101370002E0020427970617373696E670A20454DB3
:10138000455420342E3100477261706520417065EC
:10139000005061726B6572205363686D69747400EC
:1013A00077686973746C65706967004A6F686E204E
:1013B00042616D62656E656B004452494E4B20423E
:1013C0004545520A45415420464F4F4453007768E3
:1013D00069746568617431393639004D65727269B6
:1013E0006C6C004A6F652043696365726F004452FC
:1013F000494E4B204D4F524520424545520A4541EA
:1014000054204D4F524520464F4F4453004A2E2002
:1014100053696E676C65746F6E004C65736C6579AB
:10142000204361726861727400416C6578204D756B
:10143000656E747A004A617265642044654D6F740C
:101440007400427265616B696E670A456E637279FA
:101450007074696F6E0A772F204F7363696C6C6FBD
:1014600073636F706573004275696C64696E6720A1
:1014700061204750550A437261636B696E67205261
:1014800069670053796E746865746963204D6F6293
:10149000696C650A4D616C7761726520416E616CA3
:1014A000797369730054686520436176616C727961
:1014B0002069732055730048617264776172650A10
:1014C0004861636B696E6720666F720A4368656185
:1014D000702044756D6D6965730054617267657441
:1014E0006564204D616C77617265000044756568C4
:1014F000722026262042616C647563636900466F22
:10150000736161656E2026262047727562657200E0
:1015100044617669642053686177004272616E6449
:1015200020262620457276656E0A42656175205731
:101530006F6F6473004B6576696E20426F6E670053
:10154000776172746F7274656C6C0A2066757A7A52
:10155000796E6F70002E2F53485554444F574E00EC
:101560005461626C652030005461626C652031000A
:101570005461626C652032005461626C65203300F6
:101580005461626C652034005461626C65203500E2
:101590005461626C65203600576F726B73686F70B0
:1015A000203838004861636B6572730A20666F7279
:1015B0000A204368617269747920004C6F636B2064
:1015C0005069636B200A56696C6C6167650048411D
:1015D000434B455220425245570A434F4E544553C0
:1015E00054004F5741535000436972636C65204368
:1015F00069747920436F6E00546865204361766199
:101600006C727900FFD0FFE0FFC1FFD1E240A1C0C2
:10161000A6A22F27810EFA90A4AFFF64A5FF64FF56
:1016200064A4FFD0FFFEFFE0FFD11000FFFE010623
:101630000C00FE070135026B207FFE0AFE08FE0C3F
:10164000006022176780808080800080173363A04D
:10165000A0A002566650F85050F850015969207009
:10166000A8A07028A87020025767C8C8102040980A
:101670009802576740A0A040A89068271363808015
:1016800080113969204040808080404020113969B4
:1016900080404020202040408002576720A87020D2
:1016A00070A8200355652020F82020013363606076
:1016B000C0055161F8122262C0C0025767081010BD
:1016C0002040408012476760909090909060123761
:1016D0006740C040404040E00257677088081020D3
:1016E00040F8025767F808103008887002576710F2
:1016F000305090F81010025767F880F00808887092
:10170000025767304080F0888870025767F80810E9
:1017100010202020025767708888708888700257D0
:101720006770888878081060122565C0C000C0C046
:101730000136666060006060C013356520408040FF
:1017400020045363F800F813356580402040800280
:101750005767708810202000200257677088B8A84B
:10176000B88070025767708888F888888802576741
:10177000F04848704848F002576770888080808839
:1017800070025767F04848484848F0025767F880A9
:1017900080F08080F8025767F88080F080808002B7
:1017A000576770888080988870025767888888F8A3
:1017B000888888123767E04040404040E002576721
:1017C000381010101090600257678890A0C0A09049
:1017D00088025767808080808080F802576788D8A9
:1017E000A8888888880257678888C8A89888880247
:1017F000576770888888888870025767F08888F0F3
:1018000080808002576770888888A8906802576730
:10181000F08888F0A09088025767708880700888E8
:1018200070025767F8202020202020025767888800
:101830008888888870025767888888885050200276
:10184000576788888888A8A85002576788885020DA
:1018500050888802576788885020202020025767C8
:10186000F80810204080F8113969E080808080807D
:101870008080E002576780404020101008113969CD
:10188000E020202020202020E00753632050880003
:101890005161F817336380402002556570087888DD
:1018A000780257678080F0888888F00255657088D4
:1018B000808870025767080878888888780255659C
:1018C0007088F08070025767304840E04040400028
:1018D0005767708888887808700257678080F0881A
:1018E0008888881237674000C0404040E01049694E
:1018F00010003010101010906002576780808890A0
:10190000E09088123767C04040404040E002556593
:10191000D0A8A8A8A8025565B0C8888888025565CF
:101920007088888870005767F0888888F080800009
:10193000576778888888780808025565B0C880801D
:101940008002556578807008F00257672020F820E3
:10195000202018025565888888986802556588880F
:101960008850200255658888A8A85002556588507F
:10197000205088005767888888502040800255652D
:10198000F8102040F8113969204040408040404024
:101990002021196980808080808080808011396951
:1019A00080404040204040408004536348A890FF5E
:1019B00000000000240027002A002D003000000055
:1019C0000000250028002B002E0031000000000040
:1019D0002300260029002C002F0004040404040323
:1019E00004050202020204030202020206060606BF
:1019F00006060404020202040404080201104080E6
:101A000040102040804080080204018040201002E5
:101A100001108010204040200000000200080E004D
:101A200000030401000B00000000000000000000A3
:101A3000000000000000070605040100080A0B0C66
:101A40000D0905010902A1010901A100850105098E
:101A500019012903150025019503750181029501DE
:101A60007505810305010930093109381581257F84
:101A7000750895038106C0C005010906A10185020C
:101A8000050719E029E71500250175019508810270
:101A900095017508810395067508150025650507EC
:101AA000190029658100C00904020001030000003B
:101AB000092101010001226500070584034000019E
:101AC00000000000000000002A2B28000000000099
:101AD0000000000000000000000000000000000006
:101AE0002C9EB4A0A1A2A434A6A7A5AE362D37384B
:101AF000271E1F20212223242526B333B62EB7B854
:101B00009F8485868788898A8B8C8D8E8F90919211
:101B1000939495969798999A9B9C9D2F3130A3AD5D
:101B2000350405060708090A0B0C0D0E0F101112DB
:101B3000131415161718191A1B1C1DAFB1B0B500D8
:101B40000403090422035500530042002000490009
:101B50004F00200042006F0061007200640020000E
:101B6000200020002000180355006E006B006E005E
:101B70006F0077006E00200020002000200012017E
:101B8000000200000040ADD3EFBE000101020001E1
:101B90001201000202000040ADD3EFBE00010102BD
:101BA000000100C18081C1080B000202020100098E
:101BB00004000001020200000524001001052401B8
:101BC0000101042402060524060001070581031013
:101BD000004009040100020A00000007050202405B
:101BE00000000705830240000000D012AB28A42AA1
:101BF000822D11241FBECFEFDAE0DEBFCDBF11E092
:101C0000A0E0B1E0E8EFFCE502C005900D92AC3633
:101C1000B107D9F712E0ACE6B1E001C01D92AE3ECB
:101C2000B107E1F71BE1C2EFDBE104C02297FE013F
:101C30000E94762ECA3ED107C9F70E94B4290C949F
:101C40007A2E0C940000FB019F01E8944230C4F00E
:101C50004532B4F44A3029F497FB1EF490958195EF
:101C60009F4F642F77270E944D2E805D8A330CF0A2
:101C7000895D8193CB010097A1F716F45DE2519342
:101C80001082C9010C94440EDC01FC01672F719194
:101C90007723E1F7329704C07C916D937083629152
:101CA000AE17BF07C8F3089520E030E060E070E0B1
:101CB00011C04081413011F0433011F46F5F7F4F0C
:101CC0000196319687309105A1F72F5F3F4F233062
:101CD000310569F0F90183E0EE0FFF1F8A95E1F706
:101CE000E21BF30BE451FE4F80E090E0E2CF7093F3
:101CF00004026093030208951F93CF93DF938370D0
:101D000090E0182F110F8C7F64E070E00E94612E2C
:101D100040E050E0C0E0D0E085E1689FB0011124D0
:101D200015C08D9190E0012E02C0959587950A947B
:101D3000E2F7837081932F5F3F4F2730310589F79A
:101D40004F5F5F4F27964330510591F0DE01A60F9C
:101D5000B71FA85FBE4FFA0193E0EE0FFF1F9A95E1
:101D6000E1F7E41BF50BE451FE4F20E030E0D9CF62
:101D7000DF91CF911F910895FF920F931F93F82E3B
:101D800010920602109205028093110228E030E0C2
:101D90003093B1012093B0013093B3012093B2018D
:101DA000A0E1B0E0B093B501A093B401E0E3F0E0AE
:101DB000F093B901E093B80160E570E07093B7016A
:101DC0006093B60140E750E05093BB014093BA01E5
:101DD0008FEF9FEF9093BD018093BC019093BF0163
:101DE0008093BE011092C3011092C2011092C101F2
:101DF0001092C0013093C5012093C4013093C701F4
:101E00002093C601B093C901A093C801F093CD01FE
:101E1000E093CC017093CB016093CA015093CF0142
:101E20004093CE019093D1018093D0019093D30140
:101E30008093D2011092D5011092D40101E010E0FC
:101E40001093D7010093D6013093D9012093D80184
:101E50003093DB012093DA01B093DD01A093DC0124
:101E6000F093E101E093E0017093DF016093DE0104
:101E70005093E3014093E2019093E5018093E401E4
:101E80009093E7018093E6011092E9011092E80136
:101E90001093EB010093EA0180E691E09093080231
:101EA000809307028F2D0E947C0EFF2011F485E0A5
:101EB00001C081E080930F021F910F91FF90089560
:101EC000FC0182899389892BA9F42481358186813B
:101ED00097818617970774F060567F4F62177307D4
:101EE0004CF00AC080E0405C5F4F421753071CF083
:101EF00081E0089580E0089520853185828593856D
:101F000084179507BCF3EECF0F931F93CF93DF9306
:101F1000FC01EB018A01848595858617970731F4CA
:101F2000868597858417950709F446C08681978131
:101F300024813581820F931F62E070E00E94612E40
:101F40009B01A085B185628573852C173D072CF117
:101F5000CE0180569F4F82179307FCF0CB018A0F6A
:101F60009B1F62E070E00E94612E601771076CF0A9
:101F7000C801805C9F4F861797073CF08081918154
:101F8000909581959F4F91838083828193819095D5
:101F900081959F4F9383828307C080819181909523
:101FA00081959F4F9183808381E090E0918B808B1E
:101FB000D587C48717870687DF91CF911F910F912F
:101FC00008957F928F929F92AF92BF92CF92DF92AD
:101FD000EF92FF920F931F93CF93DF93882E792E6A
:101FE0009924E12C42E0F42ECC24DD2497C0005249
:101FF0001F4F8881813008F47CC0833020F083300B
:1020000009F077C029C0992009F073C0882D972D59
:10201000B801A7010E94600F882309F46AC080916B
:10202000050290910602892B41F4882D972DB80165
:10203000A7010E94840F99249394809101029091AA
:1020400002020196909302028093010288818230FD
:1020500009F44FC018824DC0992009F04AC0882D5C
:10206000972DB801A7010E94600F882309F441C091
:102070008091C2019091C301892B19F080EB91E00E
:1020800011C08091D6019091D701892B19F084EC71
:1020900091E008C08091EA019091EB01892B61F0F9
:1020A00088ED91E0DC01882D972D9C01F90184E1F8
:1020B00001900D928150E1F7882D972DB801A7016D
:1020C0000E94840F809101029091020201969093E8
:1020D000020280930102F60133E0EE0FFF1F3A95F2
:1020E000E1F7EC19FD09EA0DFB1DE451FE4F1082EA
:1020F00024C00894A11CB11C219685E00036180765
:1021000009F075CF0894C11CD11C90E0E91693E04A
:10211000F90699F080E890E0E80EF91EE60123E068
:10212000CC0FDD1F2A95E1F7CC19DD09C451DE4F34
:1021300000E210E0AA24BB245CCFDF91CF911F9175
:102140000F91FF90EF90DF90CF90BF90AF909F9056
:102150008F907F900895FC0184819581181619064F
:1021600014F420E008C080819181909581959F4F63
:102170009183808321E0868197818054964044F04A
:1021800080819181909581959F4F9183808321E0FB
:10219000808591851816190664F081E090E0938B94
:1021A000828B82819381909581959F4F93838283C7
:1021B00021E0828593858058934044F08281938109
:1021C000909581959F4F9383828302C0222351F083
:1021D00081E090E0918B808B8FEF9FEF95878487D4
:1021E000978786870895EF92FF920F931F93CF935F
:1021F000DF93FC018B0182899389892B09F06BC0E5
:102200008FEF9FEF95878487978786878681978151
:1022100024813581820F931F62E070E00E94612E5D
:102220009B014085518582859385D8011296ED905A
:10223000FC9013976E157F050CF442C01496CD9157
:10224000DC911597C617D707DCF1840F951F62E064
:1022500070E00E94612E6051704042815381613272
:10226000710570F480819181909581959F4F918344
:10227000808388279927841B950B9383828327C0AB
:1022800088279927841B950B93838283CE018E0D1B
:102290009F1D62E070E00E94612ECB01D8016D911C
:1022A0007C9154E0759567955A95E1F7821B930BE5
:1022B0000E94612E709561957F4F7183608307C086
:1022C00080819181909581959F4F9183808381E05A
:1022D00090E0918B808BDF91CF911F910F91FF90B8
:1022E000EF900895FC01DB0182899389892B11F518
:1022F0006481758114964D915C9115972681378183
:1023000012968D919C911397281739079CF04617C8
:10231000570784F004C02133310544F00895208527
:1023200031858285938540972CF0F5CFCF01BD0193
:102330000E94F3100895FC0180819181409724F060
:1023400080E190E09183808382819381089724F0DB
:1023500088E090E09383828382819381892BE1F4EA
:1023600088EF9FEF938382838481958120813181DF
:10237000820F931F9583848386819781820F931F99
:10238000978386838085918508979187808782854A
:10239000938508979387828708950F931F93CF9310
:1023A000DF93EC018B010E949B118C819D81288120
:1023B0003981820F931F9D838C838E819F81820F31
:1023C000931F9F838E83888599852A813B81820F05
:1023D000931F998788878A859B85820F931F9B8788
:1023E0008A87198A188ACE010E94E10F8889998903
:1023F000892B71F4CE010E94AB1088899989892BB1
:1024000039F40115110521F0CE01B8010E947211B5
:1024100088899989892BE1F08C819D812881398176
:10242000820F931F9D838C838E819F81820F931FC8
:102430009F838E83888599852A813B81820F931F94
:10244000998788878A859B85820F931F9B878A87B8
:10245000DF91CF911F910F91089580910502909186
:1024600006028330910534F003979093060280931F
:10247000050204C0109206021092050280910F021C
:10248000833009F461C0843030F48130C9F0823087
:1024900009F070C04EC0853039F0853008F45BC05B
:1024A000863009F067C002C086E03DC0809110020E
:1024B000815080931002882309F05CC081E041C004
:1024C00080EB91E067E072E00E94CD1184EC91E036
:1024D00067E072E00E94CD1188ED91E067E072E064
:1024E0000E94CD118091C2019091C301892B91F07E
:1024F0008091D6019091D701892B61F08091EA01FA
:102500009091EB01892B31F082E080930F0280E5FE
:10251000809310020E94540E809103029091040255
:10252000892B41F584E080930F0280E580931002AF
:102530000895809110028150809310028823D1F475
:1025400083E080930F02089581E080930F0280E082
:102550000E94BC0E08958091100281508093100259
:10256000882341F481E080930F02809111028F5FF4
:102570000E94BC0E0895FF920F931F938C01262F8B
:10258000FC01F3AC04966F2D44AD0E949421F80E2B
:10259000F801F3AE81E090E01F910F91FF90089554
:1025A000EF92FF920F9310926F0110926E016EE600
:1025B000E62E61E0F62E88E491E0F7019293829393
:1025C0007F01CF0166E271E041E12BE00FEF0E9455
:1025D0001D1D80E491E0F701918380830F91FF90AE
:1025E000EF9008958091050161E00E940C2868EA4F
:1025F00070E080E090E00E94D0268091050160E0CC
:102600000E940C2868EA70E080E090E00E94D026EA
:102610008091050161E00E940C2868EA70E080E08A
:1026200090E00E94D0268091050160E00E940C2875
:1026300068EA70E080E090E00E94D0268091050179
:1026400061E00E940C2868EA70E080E090E00E945F
:10265000D0268091050160E00E940C2860E471E0C2
:1026600080E090E00E94D0268091050161E00E9408
:102670000C2868EE73E080E090E00E94D026809104
:10268000050160E00E940C2868EA70E080E090E0BC
:102690000E94D0268091050161E00E940C2868EE1E
:1026A00073E080E090E00E94D0268091050160E018
:1026B0000E940C2868EA70E080E090E00E94D0263A
:1026C0008091050161E00E940C2868EE73E080E0D3
:1026D00090E00E94D0268091050160E00E940C28C5
:1026E00068EA70E080E090E00E94D02680910501C9
:1026F00061E00E940C2868EA70E080E090E00E94AF
:10270000D0268091050160E00E940C2868EA70E004
:1027100080E090E00E94D0268091050161E00E9457
:102720000C2868EA70E080E090E00E94D02680915A
:10273000050160E00E940C2868EA70E080E090E00B
:102740000E94D0268091050161E00E940C2868EA71
:1027500070E080E090E00E94D0268091050160E06A
:102760000E940C2881E0809313020895CF93DF9399
:10277000EC018DAD882331F481E08DAFCE0104965C
:102780000E942223CE0104960E943223DF91CF9132
:102790000895EF92FF920F93CF93DF93EC018CE6B5
:1027A00091E00E94B61380E791E06FE040E029E0FD
:1027B00000E47E010E944E1D80E791E00E943823D4
:1027C000882389F7DF91CF910F91FF90EF900895C3
:1027D000EF92FF920F93CF93DF93EC018CE691E0A1
:1027E0000E94B61380E791E063E040E02CE000E453
:1027F0007E010E944E1D80E791E00E9438238823CD
:1028000089F7DF91CF910F91FF90EF900895EF92AC
:10281000FF920F9380E791E061E00E9462238CE6D3
:1028200091E00E94B61380E791E063E140E028E088
:1028300000E478EFE72E78E0F72E0E944E1D80E747
:1028400091E00E943823882371F768EB7BE080E0F9
:1028500090E00E94D0260F91FF90EF900895EF92A4
:10286000FF920F931F9310E48CE691E00E94B61341
:1028700080E791E060E0412F2CE004E1A8EFEA2E30
:10288000AAE0FA2E0E944E1D80E791E00E943823B4
:10289000882371F762E370E080E090E00E94D02628
:1028A00011501B3009F768EE73E080E090E00E9461
:1028B000D0268CE691E00E94B61380E791E060E0BC
:1028C0004CE02CE004E1F8EFEF2EFAE0FF2E0E943E
:1028D0004E1D80E791E06FE148E125E0E8EEEE2E45
:1028E000EBE0FE2E0E944E1D80E791E00E9438230F
:1028F000882319F768EB7BE080E090E00E94D02607
:102900001F910F91FF90EF900895EF92FF920F9318
:10291000CF93DF93EC018CE691E00E94B61380E741
:1029200091E063E140E028E000E47E010E944E1D5A
:1029300080E791E00E943823882389F768EB7BE0E9
:1029400080E090E00E94D026DF91CF910F91FF9020
:10295000EF9008950F9380E791E061E00E94622379
:102960008CE691E00E94B61380E791E064E140E0DC
:1029700022EC3CE00E94432180E791E06CE04AE0D9
:1029800024EB3CE00E94432180E791E060E044E1D9
:1029900026E604E10E94B02180E791E068E044E18E
:1029A00025EA3CE00E94432180E791E063E04EE1AC
:1029B00024E93CE00E94432180E791E061E048E2A5
:1029C00022E83CE00E94432180E791E00E94382306
:1029D000882351F668EB7BE080E090E00E94D026EF
:1029E0008CE691E00E94B61380E791E061E044E15B
:1029F00020E73CE00E94432180E791E063E04EE164
:102A00002EE53CE00E94432180E791E063E048E24C
:102A10002CE43CE00E94432180E791E00E943823AF
:102A2000882311F70F910895CF92DF92EF92FF92D2
:102A30000F931F93DF93CF93CDB7DEB729970FB6D0
:102A4000F894DEBF0FBECDBFFE01319689E0DF01F5
:102A50001D928A95E9F700E010E07F018CE792E093
:102A6000B8010E946926F701E00FF11F80830F5F14
:102A70001F4F0930110591F719868CE691E00E94ED
:102A8000B6137E010894E11CF11CB6E6CB2ED12CC6
:102A900080E791E06CE04AE029EE3CE00E944321AF
:102AA00080E791E060E044E126E604E10E94B02185
:102AB00080E791E064E144E12CED3CE00E94432199
:102AC00080E791E068E04EE12DEC3CE00E9443217C
:102AD00080E791E0B7010E9490209601281B310900
:102AE000C90162E070E00E94612E80E791E042E35C
:102AF00097010E946C2180E791E00E94382388238F
:102B000039F629960FB6F894DEBF0FBECDBFCF9130
:102B1000DF911F910F91FF90EF90DF90CF9008957C
:102B20002F923F924F925F926F927F928F929F92DD
:102B3000AF92BF92CF92DF92EF92FF920F931F93CB
:102B4000DF93CF93CDB7DEB763970FB6F894DEBFB0
:102B50000FBECDBF80911D018032A1F0813218F4EB
:102B60008031C9F505C08034D9F08038A1F526C080
:102B700010E0B4EC4B2EB0E05B2EACE0AA2EA1E04E
:102B8000BA2E25C011E0F4EE4F2EF0E05F2EECE4FB
:102B9000AE2EE1E0BE2E76E6C72E71E0D72E1BC02A
:102BA00012E06EEF462E60E0562E50E8A52E51E062
:102BB000B52E4EE8C42E41E0D42E0DC013E03CE902
:102BC000432E31E0532E2AEAA22E21E0B22E9CE2BF
:102BD000C92E91E0D92E4E010894811C911C81E1EF
:102BE000F40111928A95E9F78CE691E00E94B61300
:102BF000E12FF0E0EE0FFF1FE854FF4F02E0E02E60
:102C0000259134913B8B2A8B16E6612E712C140191
:102C100080E791E06EE276E10E94C52080E791E0D6
:102C20000E94792080E791E00E948A2080E791E06D
:102C30006A897B890E94AA20A301481B5109CA0105
:102C400062E070E00E94612E80E791E040E02A8916
:102C50003B890E94432180911402E82FF0E0EE0F9F
:102C6000FF1FE40DF51D6591749180E791E00E94CE
:102C7000AA2090911402E92FF0E0EE0FFF1FE40D5F
:102C8000F51D25913491F301E81BF109CF0162E0B4
:102C900070E00E94612E80E791E04AE00E944321AB
:102CA00080E791E060E044E126E604E10E94B02183
:102CB00080911402E82FF0E0EE0FFF1FEA0DFB1DDC
:102CC0006591749180E791E00E94AA20909114028E
:102CD000873608F457C0E92FF0E0EE0FFF1FEA0D2A
:102CE000FB1D0591149190E052E0E52EF8018491CE
:102CF000F101E90FF11D80839F5F882341F10F5F90
:102D00001F4FF801F490FAE0FF16E9F4F101E90F22
:102D1000F11D108280E791E0B4010E9490209301A0
:102D2000281B3109C90162E070E00E94612EEF9C0E
:102D3000A001112480E791E094010E946C21E394AA
:102D40000F5F1F4F90E0F8018491882379F6F1011D
:102D5000E90FF11D108280E791E0B4010E949020FC
:102D60009301281B3109C90162E070E00E94612EC5
:102D70004AE0E49EA001112480E791E094010E94C2
:102D80006C2123C0E92FF0E0EE0FFF1FEA0DFB1DC1
:102D90006591749180E791E00E94AA2090911402BD
:102DA000E92FF0E0EE0FFF1FEA0DFB1D2591349196
:102DB000A301481B5109CA0162E070E00E94612E24
:102DC00080E791E045E10E94432180911D01803818
:102DD00009F48DC080911402E82FF0E0EE0FFF1F80
:102DE000EC0DFD1D6591749180E791E00E94AA2091
:102DF00090911402873608F457C0E92FF0E0EE0FE7
:102E0000FF1FEC0DFD1D0591149190E0F8018491D8
:102E1000F101E90FF11D80839F5F882341F10F5F6E
:102E20001F4FF801F490FAE0FF16E9F4F101E90F01
:102E3000F11D108280E791E0B4010E94902093017F
:102E4000281B3109C90162E070E00E94612EEF9CED
:102E5000A001112480E791E094010E946C21E39489
:102E60000F5F1F4F90E0F8018491882379F6F101FC
:102E7000E90FF11D108280E791E0B4010E949020DB
:102E80009301281B3109C90162E070E00E94612EA4
:102E90004AE0E49EA001112480E791E094010E94A1
:102EA0006C2183E0E82E23C0E92FF0E0EE0FFF1F36
:102EB000EC0DFD1D6591749180E791E00E94AA20C0
:102EC00090911402E92FF0E0EE0FFF1FEC0DFD1DB5
:102ED00025913491A301481B5109CA0162E070E0B9
:102EE0000E94612E80E791E042E30E94432180E747
:102EF00091E00E943823882309F08ACE63960FB6AA
:102F0000F894DEBF0FBECDBFCF91DF911F910F911F
:102F1000FF90EF90DF90CF90BF90AF909F908F90F9
:102F20007F906F905F904F903F902F9008950F93F8
:102F3000FC016281738104E0759567950A95E1F75C
:102F40006E5F80E791E043E026E103E00E94842584
:102F50000F9108950F93FC0182899389892BB1F415
:102F60006481758194E0759567959A95E1F76E5F38
:102F70004085518584E0559547958A95E1F74E5FE8
:102F800080E791E023E003E00E9484250F910895FB
:102F9000AF92BF92CF92DF92EF92FF920F931F9367
:102FA000CF93DF935C018CE691E00E94B61326E696
:102FB000C22ED12C80E791E06EE276E10E94C5201E
:102FC00080E791E00E94792080E791E00E948A20CA
:102FD000E501FF2410E0FE016591749180E791E026
:102FE0000E94AA20E82E80E791E00E94652380914C
:102FF0001202F81669F4412F4F5F80E791E060E01C
:1030000026E60AE00E94842580E791E00E9478236A
:10301000FE0125913491C6018E19910962E070E09C
:103020000E94612E80E791E0412F0E944321F3949A
:103030002296165F86E0F81671F680E791E00E940E
:103040003823882309F0B6CFDF91CF911F910F91DC
:10305000FF90EF90DF90CF90BF90AF900895809158
:10306000AB018093AC01809100010E943F28892B25
:1030700011F481E007C08091AA010E943F28892BAA
:1030800021F482E08093AB0122C0809101010E9473
:103090003F28892B11F483E0F5CF809102010E9433
:1030A0003F28892B11F484E0EDCF809104010E9428
:1030B0003F28892B11F485E0E5CF809103010E9420
:1030C0003F28892B11F486E0DDCF1092AB0190915F
:1030D000AC018091AB01981719F49093AD0108955C
:1030E0001092AD0108951F93CF93DF931092AF011B
:1030F0001092AE01C8ECD0E05AC00E942F18809107
:10310000AD01843009F45AC0882381F48091AE0166
:103110009091AF0101969093AF018093AE016FE063
:1031200070E080E090E00E94D02604C01092AF01D1
:103130001092AE018091AE019091AF0163E070E01A
:103140000E944D2E182F813049F0813018F08230C6
:1031500069F408C088EB93E00E94E81388EB96E0DE
:103160000E94C91388EB93E00E94E8138091050147
:1031700061E00E940C28812F90E0837090708C9FFA
:10318000B0018D9F700D9C9F700D1124882777FDD5
:103190008095982F0E94D0268091050160E00E94C2
:1031A0000C2868EA70E080E090E00E94D0268091D0
:1031B000AE019091AF014E9708F49FCFDF91CF9170
:1031C0001F910895EF92FF920F938CE691E00E9479
:1031D000B61380E791E063E248E028E000E438EFCE
:1031E000E32E3CE0F32E0E944E1D80E791E00E940A
:1031F0003823882371F766C087E892E00E948B2805
:103200008091050161E00E940C280E942F18809196
:103210000601909107012091AD01892B51F12330D6
:1032200001F1243030F42130A1F0223009F04AC0FD
:1032300014C0253031F02530C0F0263009F042C0EE
:1032400004C087E892E061E43BC087E892E064E470
:1032500037C087E892E067E533C087E892E063E52E
:103260002FC087E892E065E42BC087E892E061E533
:1032700027C02330F1F0243028F4213091F022309F
:1032800009F513C0253029F02530B8F02630D1F4E7
:1032900004C087E892E06AE413C087E892E06CE437
:1032A0000FC087E892E069E40BC087E892E06BE426
:1032B00007C087E892E06FE403C087E892E065E525
:1032C0000E948D288091D90080FD96CF87E892E0FA
:1032D0000E948C288091050160E00E940C2887E8FC
:1032E00092E00E948C288091050160E00E940C28E9
:1032F0000F91FF90EF9008951F93809104010E9419
:103300003F28892B11F010E011C080910D0290919F
:103310000E022FEF843E92071CF480EE9FEF01C057
:10332000049790930E0280930D0211E080910301A7
:103330000E943F28892B81F480910D0290910E020A
:103340008D3191051CF080E290E001C004969093CD
:103350000E0280930D0211E0809100010E943F282F
:10336000892B09F411E08091AA010E943F28892B42
:1033700091F0112381F480910D0290910E021816A4
:10338000190614F4049703C0009729F0049690934B
:103390000E0280930D021F9108951F9310E01B30C1
:1033A00051F0113141F0812F60E00E947F27812F81
:1033B00060E00E940C281F5F1F3189F78091000197
:1033C00060E00E947F278091000161E00E940C284C
:1033D0008091AA0160E00E947F278091AA0161E0AC
:1033E0000E940C288091010160E00E947F2780915B
:1033F000010161E00E940C288091020160E00E94BE
:103400007F278091020161E00E940C2880910401D5
:1034100060E00E947F278091040161E00E940C28F7
:103420008091030160E00E947F278091030161E0A9
:103430000E940C288091050161E00E947F271F9166
:10344000089510927A008091D80080618093D8000E
:103450001092AF011092AE0180E791E00E943E26EB
:1034600080E791E061E00E9462231092AF01109228
:10347000AE010E94CD1981E0809313028CE792E0A7
:1034800064E670E00E946926882331F00E942F14C0
:1034900088EB91E00E9485148CE792E064E670E08E
:1034A00041E00E9470260895FF920F931F93182FFA
:1034B000F62E423071F0433021F1413009F04DC019
:1034C00080E791E0612F4F2D2AE004E00E948425DF
:1034D00044C080E791E0612F4F2D2AE004E00E9474
:1034E000842580E791E060E00E9462231F5FF394EF
:1034F00080E791E0612F4F2D28E002E00E948425B3
:1035000027C080E791E0612F4F2D2AE004E00E9460
:10351000842580E791E060E00E9462231E5F2F2DEA
:103520002D5F80E791E0612FF3944F2D0E941225CB
:103530000F2D0F5F115080E791E0612F402F0E9407
:1035400048231E5F80E791E0612F402F0E944823AF
:1035500080E791E061E00E9462231F910F91FF904C
:103560000895BF92CF92DF92EF92FF920F931F9335
:10357000CF93DF93EE24FF24C12CE2E0DE2E1EC0A9
:10358000CE0174E0959587957A95E1F78E5F6B2D66
:10359000F80141918F010E94541AC052DF4FF6E0AA
:1035A000C034DF0769F70894E11CF11C80E890E063
:1035B000C80ED91E93E0E916F104B1F0C60164E02B
:1035C000959587956A95E1F752E0B52EB80E87017B
:1035D00043E0000F111F4A95E1F70E191F0904512E
:1035E0001E4FC0E2D0E0CCCFDF91CF911F910F9161
:1035F000FF90EF90DF90CF90BF9008950F931F93AF
:10360000DF93CF93CDB7DEB7AD970FB6F894DEBF9B
:103610000FBECDBF0E94B11A80EB91E00E94AA17A5
:1036200084EC91E00E94AA1788ED91E00E94AA170D
:1036300087E092E00E94971780910F02863081F414
:1036400080E791E00E943E2680E791E064E148E255
:1036500024E13FE00E94432180E791E00E94572649
:1036600080910F02823059F58091010290910202FF
:103670008E010F5F1F4FB8014AE050E00E94230EF9
:1036800080E791E00E943E2680E791E068E14EE10C
:103690002AE03FE00E94432180E791E068E148E2B0
:1036A00022E03FE00E94432180E791E066E448E2A7
:1036B00098010E946C2180E791E00E94572680913A
:1036C0000F02843081F480E791E00E943E2680E77B
:1036D00091E068E148E228EF3EE00E94432180E764
:1036E00091E00E945726AD960FB6F894DEBF0FBE4C
:1036F000CDBFCF91DF911F910F91089580E00E947F
:10370000BC0E2FC08CE691E00E94B6130E94FE1AF8
:1037100080E791E00E9438238823C1F70E947C193A
:1037200020910D0230910E028091090290910A02BF
:10373000280F391F85E02130380714F020E035E0EC
:10374000C90137FF02C080E090E090930A028093A5
:103750000902805A9E4F90930C0280930B020E94A4
:103760002D1280910F02823069F68CE691E00E9462
:10377000B6130E94FE1A80E791E00E943823882346
:10378000C1F78CE792E068EC70E0409101020E9482
:103790007026089580911D01853009F443C086305C
:1037A00080F4823071F1833030F48823C1F08130AD
:1037B00009F04BC01FC0833059F1843009F045C077
:1037C0002EC08032B9F1813228F48630B1F18031D7
:1037D000E1F530C0803471F18038B9F52BC080E755
:1037E00091E00E9457260E947E1B80E791E00E9494
:1037F0003E2608958093130288EB90E00E94C8173C
:1038000021C081E090E0909307018093060104C0FD
:1038100010920701109206010E94E21808950E947A
:103820001415089581E0809313020E9407140E94EA
:10383000F21208C00E949015089581E0809313024F
:103840000E94AA141092130208958CEA90E00E943C
:10385000C81708959091AD01992329F08091150220
:10386000891709F492C09093150280911D0180324E
:1038700051F0813218F4803151F407C0803449F09E
:10388000803829F406C04DE005C040E103C046E0A1
:1038900001C047E0923061F0933020F4913009F09C
:1038A00074C01DC09330D1F1943009F06EC061C076
:1038B00080518F3E50F0809112028F5F80931202F0
:1038C000863040F11092120225C0809114028F5F61
:1038D000809314028417F0F0109214021BC08051E0
:1038E0008F3E68F080911202882319F486E080935D
:1038F0001202809112028150809312020BC08091BB
:103900001402882311F44093140280911402815010
:103910008093140281E08093130208958F3F39F45D
:103920008091120280931D01109212021AC0813000
:10393000D9F420911202253011F486E00AC030E05B
:103940002C5F3F4F81E090E002C0880F991F2A95BD
:10395000E2F780931D0180911402481710F4409300
:1039600014020E94CA1B0895863079F40E947318CD
:10397000089580518F3E10F08FEF01C081E0809359
:103980001D01109212020E94CA1B08950E942F1856
:103990008091AD01882381F48091AE019091AF01B7
:1039A00001969093AF018093AE016FE070E080E0EC
:1039B00090E00E94D02604C01092AF011092AE0198
:1039C0008091AE019091AF01815D974058F180E701
:1039D00091E00E94572680E791E061E00E94622317
:1039E00088EB91E00E94851480E791E00E943E26DA
:1039F0001092AF011092AE018CE792E064E670E0A5
:103A000040E00E94702683B7817F846083BF83B7C4
:103A1000816083BF889583B78E7F83BF1092AF018B
:103A20001092AE0180911302882311F00E94CA1BEC
:103A3000109213020E942A1C08950F93FC0113AEEA
:103A400014AE15AE04960E94A5230F910895BF925F
:103A5000CF92DF92EF92FF920F931F93CF93DF935A
:103A60006C01E62EB42EF22EE8010CC0FE0104918A
:103A7000C6016E2D4B2D20E00E9451232196FA9411
:103A8000F8E0EF0EFF2091F7DF91CF911F910F919A
:103A9000FF90EF90DF90CF90BF9008958F929F920C
:103AA000AF92BF92CF92DF92EF92FF920F931F934C
:103AB000CF93DF935C01862EC42E922ED02EC22F80
:103AC000D0E09E0183E0220F331F8A95E1F7C50104
:103AD0000E94871D882361F40DC0C501682D4C2DFF
:103AE000292D87010E94271DEC0EFD1EC394DA9438
:103AF000DD2099F7DF91CF911F910F91FF90EF900B
:103B0000DF90CF90BF90AF909F908F9008950F93CC
:103B1000FC014150040F4F5F94A986A9841718F047
:103B2000091728F402C0091798F0041788F46150A7
:103B3000260F6F5F93A985A9861718F0291718F02B
:103B400005C0291728F080E0261718F481E001C08D
:103B500080E00F910895FB010480F581E02D61E084
:103B600020E030E009950895FB010480F581E02D07
:103B700063E020E030E009950895FB010480F581C1
:103B8000E02D64E040E020E030E009950895FB017D
:103B90000480F581E02D64E041E020E030E009950B
:103BA0000895FB010480F581E02D62E020E030E023
:103BB00009950895FB010480F581E02D65E020E082
:103BC00030E009950895FB010480F581E02D66E061
:103BD00009950895CF92DF92EF92FF920F931F9372
:103BE000CF93DF937C01EB016A0100E0F6011491B1
:103BF000002361F41F3F11F401E045C0C701BE017D
:103C0000412F0E94DA1D8823F1F541C01F3F41F486
:103C1000C701BE014FEF0E94DA1D882399F537C016
:103C20001E3F11F481E034C0103F60F5103E38F0C3
:103C30001F70C701BE01412F0E94D11D23C0103D3E
:103C400038F01F70C701BE01412F0E94B41D1AC079
:103C5000103C80F0C701BE010E94BD1D1295107F6F
:103C60001E5F812F90E00E94EE1EC701BE010E94E0
:103C7000C71D04C01E3B30F417FD04C0812F90E027
:103C80000E94EE1E00E00894C11CD11CAFCF80E062
:103C9000DF91CF911F910F91FF90EF90DF90CF9028
:103CA00008951F93CF93DF93EC01A39610E08881D2
:103CB0008F3F39F061E00E947F27888161E00E9498
:103CC0000C281F5F21961D3091F7DF91CF911F9136
:103CD0000895FC01E60FF11D83A18F3F19F0642FB9
:103CE0000E940C2808950F931F93CF93DF93EC014C
:103CF000162F042F643009F445C0653040F462305B
:103D000081F1633080F5613009F062C009C066302E
:103D100009F445C06630E8F1673009F059C04CC07D
:103D20000E94511E8FE061E00E947F278FE060E0DB
:103D30000E940C2880E161E00E947F2780E160E022
:103D40000E940C2881E161E00E947F2781E161E00F
:103D50000E940C281CBC80E58CBD0230C8F51DBD3E
:103D600037C061E014C0442319F462E041E007C0A9
:103D700064E040E00E94691ECE0162E040E00E94E3
:103D8000691E26C08BA18F3F19F1CE0160E0402F44
:103D9000F6CF4EBD0DB407FEFDCF8EB519C0F901AB
:103DA00008C080818EBD0DB407FEFDCF31968EB563
:103DB00001500023B1F70CC0F90108C084918EBDF9
:103DC0000DB407FEFDCF8EB5319601500023B1F73B
:103DD00081E0DF91CF911F910F9108952EEC37E094
:103DE00004C0F9013197F1F701970097D1F70895D1
:103DF000AF92BF92DF92EF92FF920F931F93CF93F8
:103E0000DF937C01EB01D42E59018FE0481791F12B
:103E1000E5E14E1779F0FAE04F1709F048C0C70105
:103E200042E00E94AB1DC701BE0144E056E10E9482
:103E3000EA1D3DC00A811B81C70146E256E10E948E
:103E4000EA1DF8014481406BC701BE010E94DA1DE2
:103E5000C701BE0141E00E94D11DC801B701AE01FA
:103E60000E942324882349F1C701BE0140E00E943B
:103E7000B41D1DC0C70141E00E94B41DC701BE01B1
:103E800040E00E94D11DC701BE0141E80E94DA1D39
:103E9000F501408146954695C701BE010E94DA1D95
:103EA000C701BE0140E00E94B41D81E006C0C70109
:103EB000BE014D2D95010E948E24DF91CF911F915F
:103EC0000F91FF90EF90DF90BF90AF900895FC01AD
:103ED000E60FF11D8491382F20E03196E4912E0FEA
:103EE000311DC9010895FC01849108950E94731F3A
:103EF000882321F0823011F083E0089586E0089550
:103F000066E00E94671F089568E00E94671F089599
:103F1000FC013A96E4918E2F0895FC013B96E491C2
:103F20008E2F08959F92AF92BF92CF92DF92EF9221
:103F3000FF920F931F93CF93DF93EC01C62EFC806B
:103F4000ED800F2D1E2D8F2D9E2D0E94731FB82EDC
:103F50008F2D9E2D0E94761F982E81E0B81619F4A1
:103F60008FE0A82E02C0AA24AA948F2D9E2D0E9415
:103F70008D1FD82E80E68C1558F48F2D9E2D0E9413
:103F8000841F009729F0F801E80FF91F81E614C09B
:103F900080E48C1558F48F2D9E2D0E94801F009771
:103FA00029F0F801E80FF91F81E406C08F2D9E2D3E
:103FB0000E94881FF8017196DC1408F445C0D816D9
:103FC00008F442C0282F492D50E094919F3F11F4EE
:103FD000319636C02C1509F02BC0BB2019F082E0B9
:103FE000B81681F484918B8B319684918C8B3296A8
:103FF0008491888B31968491898B31968491359701
:104000008A8B29C0892F8F7082508A8B92959F70DE
:10401000998B31968491982F9F709C8B82958F708D
:104020008B8B31968491329782958F70888B13C0D9
:104030003296849132978A21E80FF11DE40FF51F23
:104040002D1511F02F5FC1CF188A1B8A1C8A198A7F
:104050001A8AE0E0F0E0CF01DF91CF911F910F913C
:10406000FF90EF90DF90CF90BF90AF909F9008951A
:10407000DC011496ED91FC911597309709F438C046
:1040800057968C915797882339F435968491589692
:104090008C93589737960AC0813011F43F9601C02F
:1040A0003D96849158968C93589731968491599661
:1040B0008C93599758968C915897282F332727FD22
:1040C000309559968C915997992787FD9095281B83
:1040D000390B5A968C915A97803441F0289F900161
:1040E000112496E0369527959A95E1F75B962C93E7
:1040F0000895FC01178A0E943820089580E00895F1
:104100002EE730E2FC01368B258B0895FC01808D73
:104110008F5F089526E830E2FC01368B258B0895E9
:10412000EF92FF921F93CF93DF937C01EB0110E09E
:104130006881662341F0C7010E94921FF7018089C0
:10414000180F2196F5CF812FDF91CF911F91FF900E
:10415000EF900895EF92FF921F93CF93DF937C012E
:10416000EB0110E0FE016491662341F0C7010E945B
:10417000921FF7018089180F2196F4CF812FDF91CC
:10418000CF911F91FF90EF900895CF93DF93EC01B3
:104190008C819D818617970749F07D836C83CE01C2
:1041A0000E9438208EE790E29E8B8D8BDF91CF911D
:1041B00008954F925F926F927F928F929F92AF92EB
:1041C000BF92CF92DF92EF92FF920F931F93CF9304
:1041D000DF937C01062FB42E622F0E94921FEC0108
:1041E000009711F480E03EC0F701C480D5801389A8
:1041F00074888188800E82899B2C9718981AC70131
:10420000682D492D212F072D0E94871D882341F1FC
:10421000C6010E94761F67E0A62EA10EA694A69462
:10422000A6946E01C80ED11CBB244A2C552411C083
:10423000FE010491C701612F462D20E00E94512309
:104240002196185F9E012C192A1590F3C40CD51CD9
:10425000B3946B2C690CB71418F4E601182DF2CF47
:10426000F7018089DF91CF911F910F91FF90EF901F
:10427000DF90CF90BF90AF909F908F907F906F9086
:104280005F904F900895DF92EF92FF920F931F93EC
:10429000CF93DF938C01D62EE42EE901DC015596F5
:1042A000ED91FC9156970995E80EFF24FE012491AB
:1042B000222349F0C8016D2D4E2D0E94D920D80E21
:1042C000F80E2196F3CF8F2DDF91CF911F910F9193
:1042D000FF90EF90DF900895DF92EF92FF920F939F
:1042E0001F93CF93DF938C01D62EE42EE901DC01DE
:1042F0005596ED91FC9156970995E80EFF2408C05C
:10430000C8016D2D4E2D0E94D920D80EF80E219691
:1043100028812223A9F78F2DDF91CF911F910F9133
:10432000FF90EF90DF900895DF92EF92FF920F934E
:104330001F938C01E62EF42ED22EDC015596ED91C2
:10434000FC9156970995F80EC8016E2D4F2D2D2D15
:104350000E94D9201F910F91FF90EF90DF90089558
:10436000AF92BF92CF92DF92EF92FF920F931F9383
:10437000CF93DF93EC01122F261718F4D62ED21A02
:1043800002C0D22ED61A041718F4C42EC01A02C0C6
:10439000C02EC41ADC1460F4842F462F682F802F9F
:1043A000012F182F8C2DCD2CD82EAA24A39401C018
:1043B000AA24161730F4812F162F682F802F042F70
:1043C000482F401718F0BB24BA9402C0BB24B39402
:1043D000FD2CF694062FE42E11C0AA2021F4CE0164
:1043E000602F4E2D03C0CE016E2D402F0E9448231A
:1043F000FC18F7FE02C0EB0CFD0C0F5F101768F7FE
:10440000DF91CF911F910F91FF90EF90DF90CF90B0
:10441000BF90AF900895FB01A081B181FD01099586
:104420000895EF92FF920F931F938C017B01DC01A3
:10443000D196ED91FC91D29782E00995D701ED914B
:10444000FC91C801B7014AE020E030E00995F82E60
:10445000D801D196ED91FC91D29783E00995D801CE
:10446000D196ED91FC91D29780E009958F2D1F9107
:104470000F91FF90EF900895EF92FF920F931F938B
:104480008C017B01DC01D196ED91FC91D29782E009
:104490000995D801D196ED91FC91D29781E00995CB
:1044A000D701ED91FC91C801B70144E120E030E073
:1044B000099598012D5C3F4FD701ED91FC91C80102
:1044C000B70147E10995D801D196ED91FC91D297BA
:1044D00080E009951F910F91FF90EF900895FF9252
:1044E0000F931F93CF93DF93EC018B01E9A9FAA9F6
:1044F00082E00995E9A9FAA981E00995D801ED9131
:10450000FC91CE01B80145E120E030E00995F82E9C
:10451000882351F09E012D5C3F4FD801ED91FC9115
:10452000CE01B80147E10995E9A9FAA980E009950A
:104530008F2DDF91CF911F910F91FF9008950F93D1
:104540001F93FC01DB01448F258F0D911C9142E3E9
:104550007C969F01F80109951F910F910895EF92A4
:104560000F93CF93DF93FC01448F258F078FE68E47
:10457000EB01A881B9814BE37C969F01FD01099570
:10458000DF91CF910F91EF900895DF93CF930F922A
:10459000CDB7DEB7FB01A081B18146E49E012F5F5C
:1045A0003F4FFD01099589810F90CF91DF910895CB
:1045B000DF93CF930F92CDB7DEB7FB01A081B1811E
:1045C00047E49E012F5F3F4FFD01099589810F90C0
:1045D000CF91DF910895FB01A081B18148E420E0F3
:1045E00030E0FD01099508950F931F938C01DC01C4
:1045F00012966D917C9113970E94C522F8018083D9
:1046000062817381C8010E94D822D80111968C93CF
:10461000119712966D917C911397C8010E94EB221D
:10462000F80183870280F381E02DA081B181C80168
:10463000BF0147E10D5C1F4F9801FD0109951F91D6
:104640000F910895CF93DF93EC016A817B810E94E3
:104650001122882321F0CE010E94F42281E0DF9113
:10466000CF910895FC01628173810E943C220895DC
:10467000CF93DF93EC01EE85FF85309709F0099524
:104680006A817B81CE010E946F22DF91CF910895D4
:10469000FC01362F242F62817381432F0E949F22B9
:1046A0000895EF920F93FC01362F542FA22FE02E86
:1046B00062817381432F252F0A2F0E94AF220F9111
:1046C000EF900895FC0160A30895FC018385803379
:1046D00021F48FEF80A381A30895883211F48FEF26
:1046E00005C0823011F081E001C083E080A308950D
:1046F000FC0110A208951F93CF93DF93EC011D825C
:104700001C821F821E82198681E0888782E28A8746
:104710001F861E86FE01B39680E09FEF91938F5F08
:104720008E30E1F711E018A3CE010E9480201F8B8C
:10473000188E198E80E48A8F1B8E88E696E29AABDB
:1047400089ABDF91CF911F910895BF92CF92DF92F5
:10475000EF92FF920F931F937C016B01142FB22EE7
:104760000E947B23F701D382C28215A3B4A203A3C4
:10477000C7010E9422231F910F91FF90EF90DF90BD
:10478000CF90BF900895FC01128280818150838375
:1047900014820895FC0120818281820F828391819D
:1047A000891710F080E0089584818F5F848383816E
:1047B000820F891710F0892F8150838381E008953B
:1047C000FC01A681B78185819D01280F311DC9019A
:1047D0001D92A817B907E1F70895DC01FB011082CB
:1047E00012968C911297818315968C911597815012
:1047F000828313968C9183830895DC01FB012181D0
:104800008381813021F0833029F0322F05C0322F8F
:10481000385F02C0322F285040E013968C911397D6
:10482000821708F041E050E012968C91381708F09A
:1048300051E090E0321708F491E0892F8423942B03
:104840009523892B0895FC01CB0126813781BA017C
:1048500045810E94E31D0895FC01A681B7818281F4
:10486000481B477081E090E001C0880F4A95EAF745
:10487000A60FB11D9C91222311F0982B02C08095A8
:1048800098239C930895FC01DB0111964C9111979C
:104890008281481760F08381841748F06C9185818C
:1048A000681728F4CF0114962C910E942C240895A7
:1048B000CF92DF92FF920F931F93CF93DF936C0100
:1048C000EB01FA808B81813061F0813028F08230F9
:1048D00059F0833019F40AC001E001C000E010E093
:1048E00007C000E011E004C00FEFF9CF00E01FEFB8
:1048F000F7FE04C0C601BE010E9443248881800FD8
:1049000088838981810F8983FF0C91F7DF91CF9193
:104910001F910F91FF90DF90CF9008950F931F93F9
:10492000CF93DF93FB018901C281D3814233D1F060
:10493000433338F4453111F1473149F1443189F5B8
:1049400016C0463449F1473449F14B3351F5CE0195
:10495000B9010E94FD23882321F1CE01B8010E94F4
:1049600058241FC0CE01B9010E9443241AC0CE01B1
:104970000E94E023CE010E94C32313C0CE010E94F7
:10498000CA23882379F0CE010E94E0230AC0CE0119
:10499000B9010E94ED2305C08D8101C08981F80114
:1049A000808381E0DF91CF911F910F910895CF9285
:1049B000DF92EF92FF920F931F93CF93DF93EC015F
:1049C000C62ED42EE22EF42E122F0AC0CE016C2D4C
:1049D0004F2D21E00FEF0E945123185088E0F80E70
:1049E0001830A0F79E2D97704E2D487F4D0D9923BE
:1049F00081F087E098279F5F97700FEF10E002C06B
:104A0000000F111F9A95E2F7CE016C2D21E00E9454
:104A10005123DF91CF911F910F91FF90EF90DF9085
:104A2000CF900895EF92FF920F931F93CF93DF9350
:104A3000EC01162FF42EE22E21E00E2D0E94871D90
:104A4000882331F0CE01612F4F2D2E2D0E94D724C7
:104A5000DF91CF911F910F91FF90EF900895CF922A
:104A6000DF92EF92FF920F931F93CF93DF93EC01AE
:104A7000D62EC42EE22EF62E122F0AC0CE016F2D96
:104A80004C2D20E00FEF0E945123185088E0F80EC3
:104A90001830A0F79E2D97706E2D687F6D0D9923AD
:104AA00081F087E098279F5F97700FEF10E002C0BA
:104AB000000F111F9A95E2F7CE014C2D20E00E94C5
:104AC0005123DF91CF911F910F91FF90EF90DF90D5
:104AD000CF900895EF92FF920F931F93CF93DF93A0
:104AE000EC01E62E142FF22ECE016E2D412F2F2D2C
:104AF0000E942F251F5F0150B9F7DF91CF911F91C1
:104B00000F91FF90EF900895DF92EF92FF920F9335
:104B10001F93CF93DF93EC01162FF42EE22E0E9409
:104B2000871D882331F0CE01612F4F2D2E2D0E943D
:104B30006A25DF91CF911F910F91FF90EF90DF9049
:104B4000089580E00895AF92BF92CF92DF92FF92D6
:104B50000F931F93CF93DF936C01FB01F42EE901B8
:104B6000A280B38082E3481709F450C0841760F034
:104B70008CE2481709F44AC08DE2481709F458C07E
:104B800087E1481759F411C086E44817A1F187E47A
:104B90004817B1F18BE3481709F44AC0C601B501C3
:104BA0004F2D9E010E940B225FC0C601B50147E157
:104BB0000E940B22C601B5010E94C522FA80F09422
:104BC000F80EC601B5010E94C52208810095080FA4
:104BD000C601B5010E94D8221B811095180FC6018D
:104BE000B5010E94D82299819095980F9B831983D3
:104BF0000A83F88238C0C601B5010E94C52204C0EC
:104C0000C601B5010E94D82288832DC0C601B50116
:104C10000E94D822082F19811095C601B5010E9463
:104C2000C52298819095980F9883100F198315C00D
:104C3000C601B5010E94D822082F19811095C6011E
:104C4000B5010E94C52298819095980F9883100F06
:104C500019838B818E5F83708B83C601B5014F2DC5
:104C60009E010E940B2281E0DF91CF911F910F9155
:104C7000FF90DF90CF90BF90AF900895FC018281AC
:104C8000938121E08C32920741F090932F01809321
:104C90002E018CE291E09383828383EA95E29093E4
:104CA0002D0180932C01CF010E94F4220895FC0174
:104CB000A281B38181E0AC32B80749F412968D919C
:104CC0009C91139793838283CF010E94F4220895CD
:104CD0000895F999FECF72BD61BDF89A80B5089527
:104CE000F999FECF1FBA72BD61BD40BD0FB6F894F1
:104CF000FA9AF99A0FBE08951F920F920FB60F926B
:104D000011242F933F934F935F936F937F938F93D0
:104D10009F93AF93BF932091810230918202409183
:104D200083025091840270918502DA01C9010296D2
:104D3000A11DB11D672F6A5F6D3730F06D57DA0125
:104D4000C9010396A11DB11D609385028093810264
:104D500090938202A0938302B093840280917D029B
:104D600090917E02A0917F02B09180020196A11DD8
:104D7000B11D80937D0290937E02A0937F02B09339
:104D80008002BF91AF919F918F917F916F915F91C1
:104D90004F913F912F910F900FBE0F901F9018953C
:104DA0009B01AC017FB7F89480917D0290917E02C7
:104DB000A0917F02B091800266B5A89B05C06F3FAD
:104DC00019F00196A11DB11D7FBFBA2FA92F982FF1
:104DD0008827860F911DA11DB11D63E0880F991FC3
:104DE000AA1FBB1F6A95D1F7BC012DC0FFB7F8946D
:104DF00080917D0290917E02A0917F02B09180020D
:104E0000E6B5A89B05C0EF3F19F00196A11DB11DA5
:104E1000FFBFBA2FA92F982F88278E0F911DA11D94
:104E2000B11DE3E0880F991FAA1FBB1FEA95D1F7B8
:104E3000861B970B885E9340C8F22150304040405B
:104E4000504068517C4F211531054105510571F6DF
:104E50000895789484B5826084BD84B5816084BDF2
:104E600085B5826085BD85B5816085BDEEE6F0E0E3
:104E7000808181608083E1E8F0E01082808182603F
:104E80008083808181608083E0E8F0E080818160C0
:104E90008083E1E9F0E080818260808380818160AD
:104EA0008083E0E9F0E0808181608083E1ECF0E0E4
:104EB0008081846080838081826080838081816042
:104EC0008083E3ECF0E0808181608083E0ECF0E0BF
:104ED000808182608083E2ECF0E080818160808369
:104EE000EAE7F0E080818460808380818260808353
:104EF0008081816080838081806880830895CF93E2
:104F0000DF93482F50E0CA018750964EFC01349140
:104F10004652564EFA018491882369F190E0880F39
:104F2000991FFC01E055F64EA591B491FC01E254A5
:104F3000F64EC591D491662351F42FB7F8948C9115
:104F4000932F909589238C93888189230BC062309D
:104F500061F42FB7F8948C91932F909589238C93BB
:104F60008881832B88832FBF06C09FB7F8948C91CC
:104F7000832B8C939FBFDF91CF910895883071F17F
:104F8000893068F4823031F1833020F4813009F0C7
:104F900042C01DC0833089F08430E9F512C08B30E7
:104FA00059F18C3028F48930E9F08A30A1F51EC01F
:104FB0008C3031F18E3079F529C0809180008F7767
:104FC00003C0809180008F7D80938000089584B518
:104FD0008F7702C084B58F7D84BD08958091900045
:104FE0008F7707C0809190008F7D03C080919000E3
:104FF000877F8093900008958091C0008F7703C0D1
:105000008091C0008F7D8093C00008958091C20080
:10501000877F8093C2000895FF920F931F93F62E0F
:10502000482F50E0CA01885E954EFC012491CA01C8
:105030008750964EFC0114914652564EFA01049147
:105040000023C9F0222319F0822F0E94BE27E02FEF
:10505000F0E0EE0FFF1FE254F64EA591B4919FB71A
:10506000F894FF2021F48C911095812302C08C913B
:10507000812B8C939FBF1F910F91FF9008950F93E9
:105080001F93482F50E0CA01885E954EFC01249181
:10509000CA018750964EFC0104914652564EFA01C1
:1050A0001491112319F420E030E015C0222319F0E7
:1050B000822F0E94BE27812F90E0880F991F845372
:1050C000964EFC01A591B4918C9120E030E08023B4
:1050D00011F021E030E0C9011F910F910895FC010A
:1050E00091818081813A31F4913089F080E0933070
:1050F00089F40DC0813269F49B3021F48281809360
:10510000320105C09A3029F482818093330181E015
:10511000089580E0089508950895EF92FF920F9307
:105120001F938C01E62EDC01ED91FC910480F5814A
:10513000E02D0995F82ED801ED91FC910680F781BC
:10514000E02DC8016E2D09958F2D90E01F910F91D4
:10515000FF90EF9008951092860210928A021092AA
:10516000890280E591E090938802809387020895F8
:10517000EF92FF920F931F93DF93CF930F92CDB7D0
:10518000DEB789838B017A0184E0BE016F5F7F4FB8
:1051900041E050E00E94C32A84E4B801A7010E94C4
:1051A000C32A0F90CF91DF911F910F91FF90EF9045
:1051B000089582E048E050E00E94B8280895FC017C
:1051C00016821782108611861286138614823496F0
:1051D000BF010E94D9280895DC01683810F0685892
:1051E00029C0E62FF0E067FF13C0E058F04081E0EF
:1051F00090E002C0880F991FEA95E2F78095149617
:105200002C911497282314962C93149760E012C0C5
:10521000E054F54E6491662319F420E030E01DC09F
:1052200067FF08C014968C9114978D7F14968C9309
:1052300014976F77FD0190E0662321F08681861731
:1052400009F416829F5F31969630B1F7CD0114961E
:10525000BD010E94D92821E030E0C9010895CF9313
:10526000DF93DC01683810F0685825C0E62FF0E0C5
:1052700067FF12C0E058F04081E090E002C0880F64
:10528000991FEA95E2F714962C911497282B1496FF
:105290002C93149760E00FC0E054F54E64916623A0
:1052A000D9F167FF08C014968C9114978260149608
:1052B0008C9314976F7716968C9116978617A9F191
:1052C00017968C911797861781F118968C911897DD
:1052D000861759F119968C911997861731F11A96FC
:1052E0008C911A97861709F11B968C911B9786173C
:1052F000E1F0ED01E0E0F0E09E2F8E81882321F4C3
:10530000EA0FFB1F668306C09F5F31962196E63049
:10531000F10591F7963049F481E090E013969C9363
:105320008E93129720E030E007C0CD011496BD01A6
:105330000E94D92821E030E0C901DF91CF91089582
:1053400080E862E47AE145E650E00E943E2A089552
:10535000FC0180818F5F808380E867EA7AE149E120
:1053600050E00E943E2A0895CF93DF930E942927A0
:105370008BE992E00E94A52A0E94211AC0E0D0E0A9
:105380000E94C61C2097E1F30E940000F9CFCF9243
:10539000DF92EF92FF920F931F93CF93DF937C01E5
:1053A0006B018A01C0E0D0E00FC0D6016D916D01A4
:1053B000D701ED91FC910190F081E02DC701099595
:1053C000C80FD91F015010400115110571F7CE010A
:1053D000DF91CF911F910F91FF90EF90DF90CF90D1
:1053E0000895282F809195028823C1F057FF1AC095
:1053F00015C02898909394028091F1008193E21750
:10540000F307B9F74115510539F08091F20088236F
:1054100019F48BE68093E800AFBF02C04FEF5FEF57
:10542000CA010895AFB7F89427702093E9008091DE
:10543000F200282F30E0241735070CF4A901FB01F6
:105440009B01240F311D94E6DACFDF93CF930F92A7
:10545000CDB7DEB7BE016F5F7F4F41E050E00E94E5
:10546000F129019719F02FEF3FEF03C08981282F11
:1054700030E0C9010F90CF91DF910895FF920F9313
:105480001F93F82E142F052F4091980250919902E6
:10549000212F302FC901DC01FB016EEF29C0F7FE7F
:1054A00002C0949101C090812091960230919702A0
:1054B00024173507ACF48091E8008570E1F3809102
:1054C000E80082FF03C02FEF3FEF17C09093F10079
:1054D000C90101968F739070892B11F46093E800D5
:1054E0002F5F3F4F3093970220939602119731968A
:1054F0001097A9F6812F902F9C01C9011F910F9140
:10550000FF9008959C018091E80082FFFCCFF90193
:10551000260F311D03C08091F1008193E217F3073C
:10552000D1F7289884E6809394028BEF8093E8006B
:10553000CB0108958093E9008091F200882319F04F
:105540008AE38093E800089508951092950281E01F
:105550008093D70080EA8093D80082E089BD09B4A7
:1055600000FEFDCF61E070E080E090E00E94D02678
:1055700080E98093D8008CE08093E2001092E000F4
:10558000559A209A08955F926F927F928F929F9280
:10559000AF92BF92CF92DF92EF92FF920F931F9341
:1055A000CF93DF93E82E842E752E80919502882369
:1055B00071F18B01242F352FC901EC017AEFF72E01
:1055C00067E0962E9E2050E4552E8E2D90E040E20E
:1055D000A42EB12CA822B9223AE3632E20E4C22ED5
:1055E000D12CC822D92258C09FB7F8949092E900D4
:1055F0008091E80085FD02C020E004C08091F200A7
:10560000252D281B9FBF222361F4FA9419F42FEF54
:105610003FEF4DC061E070E080E090E00E94D02656
:105620003BC0822F90E0C817D9070CF42C2FC21B67
:10563000D1094FB7F8949092E900A114B10421F474
:1056400006C01092F10021502223D9F719C0E7FCBF
:1056500003C0F801922F10C0C801322F06C0FC0110
:105660000196E491E093F10031503323C1F706C075
:1056700081918093F10091509923D1F7020F111D70
:105680008091E80085FF05C0209729F4C114D1045A
:1056900011F06092E8004FBF209709F0A5CF5D9808
:1056A00084E680939302282D372DC9019C01C901FE
:1056B000DF91CF911F910F91FF90EF90DF90CF90EE
:1056C000BF90AF909F908F907F906F905F90089564
:1056D0001F920F920FB60F9211242F933F934F9367
:1056E0005F936F937F938F939F93AF93BF93EF934A
:1056F000FF938091E1001092E100982F83FF0FC08B
:105700001092E90081E08093EB001092EC0082E3BC
:105710008093ED001092950288E08093F00092FF54
:1057200034C083E08093E9008091F200882319F06F
:105730008AE38093E8008FB7F89492E09093E900B1
:105740009091F2008FBF992321F080EE92E00E94A9
:10575000C52D80919302882351F08091930281504E
:105760008093930280919302882309F45D9A80913B
:105770009402882351F08091940281508093940286
:1057800080919402882309F4289AFF91EF91BF91A8
:10579000AF919F918F917F916F915F914F913F91C9
:1057A0002F910F900FBE0F901F9018950F931F937E
:1057B000DF93CF930F92CDB7DEB719828E010F5FC3
:1057C0001F4FC8010E94EB2DC8010E94A8298981A2
:1057D00090E00F90CF91DF911F910F9108951F924C
:1057E0000F920FB60F921124EF92FF921F932F93F7
:1057F0003F934F935F936F937F938F939F93AF9359
:10580000BF93EF93FF93DF93CF93CDB7DEB761974D
:10581000DEBFCDBF1092E9008091E80083FF0FC189
:10582000FE0131969E01275F3F4F03C08091F1003A
:105830008193E217F307D1F7289884E680939402C6
:1058400082EF8093E800998197FF05C08091E8007E
:1058500080FFFCCF03C08EEF8093E800292F30E05B
:10586000C90180769070892B09F0C2C08A81882393
:1058700029F41092F1001092F100D6C0813009F4A1
:10588000D3C0833009F4D0C0853049F48091E8005A
:1058900080FFFCCF8B8180688093E300C5C0863099
:1058A00009F07CC01C81EF80F8841230C1F51092A1
:1058B000E9001092970210929602109299021092AB
:1058C00098020E94D62B99E0FE013996DF01292F1C
:1058D0001D922A95E9F799871A8791E09E8790E8AB
:1058E000988B9AEF998B2091960230919702275FBF
:1058F0003F4F3C872B878D871092E90010929702CB
:1059000010929602F0929902E092980280E0BF0114
:1059100049E050E00E943E2A0E94D62B85C010929A
:10592000E9001092970210929602F0929902E0928A
:105930009802123241F482E290E00E94A029892B61
:1059400009F476C071C0113079F488E0E816F104EA
:1059500019F481E080939A0280919A02882309F0D9
:105960006BC0EEE7FBE113C0133009F061C08B811F
:10597000882319F4E0E4FBE10AC0823019F4E4E47E
:10598000FBE105C0813009F053C0E6E6FBE144913C
:1059900080E8BF0150E00E943E2A46C0873009F4EB
:1059A00047C0883021F481E08093F1003DC0893008
:1059B000D9F523703070232BD9F5E3EAFBE191E0B0
:1059C00031E026E39093E9003093EB0084918093DB
:1059D000EC002093ED009F5F3196953099F78EE7AC
:1059E0008093EA001092EA008B81809395021CC09C
:1059F0008F8198851092E90010929702109296027A
:105A000090939902809398028D81882329F4CE0186
:105A100001960E94F72D06C0823051F4CE01019606
:105A20000E946F28882321F08EEF8093E80007C042
:105A300081E28093EB0003C0E0E9FBE1A8CF61962F
:105A4000DEBFCDBFCF91DF91FF91EF91BF91AF91BD
:105A50009F918F917F916F915F914F913F912F9186
:105A60001F91FF90EF900F900FBE0F901F90189511
:105A70002091DC023091DD028091DE029091DF0204
:105A8000281B390B2F733070C90108952091DC0257
:105A90003091DD028091DE029091DF0228173907F4
:105AA00019F42FEF3FEF09C0E091DE02F091DF0221
:105AB000E456FD4F8081282F30E0C90108952091E0
:105AC000DC023091DD028091DE029091DF02281726
:105AD000390719F42FEF3FEF13C0E091DE02F09188
