:100000000C94010E0C94290E0C94290E0C94290EBC
:100010000C94290E0C94290E0C94290E0C94290E84
:100020000C94290E0C94290E0C94152C0C949C2CD9
:100030000C94290E0C94290E0C94290E0C94290E64
:100040000C94290E0C94290E0C94290E0C94290E54
:100050000C94290E0C94290E0C94290E0C9429272B
:100060000C94290E0C94290E0C94290E0C94290E34
:100070000C94290E0C94290E0C94290E0C94290E24
:100080000C94290E0C94290E0C94290E0C94290E14
:100090000C94290E0C94290E0C94290E0C94290E04
:1000A0000C94290E0C94290E0C94290E400F450F28
:1000B0004E0F570F600F650F6F0F790F7E0F860F72
:1000C0008C0F910F960F9B0FA00FA50FAA0FAF0FCC
:1000D000B40FB90FBE0FC30FC80FCD0FD20FD70F7C
:1000E000DC0FE10FE60FEB0FF00FF50FFA0FFF0F2C
:1000F000041009100E10131018101D1022102710D4
:100100002C10311036103B10401046104C1062106D
:100110008510A310A910C810E010F010F6101311EC
:100120002311381144114C114D11521159116811FC
:10013000791185119C11AE11BC11CC11EC11FB1180
:100140000D121A122A1232123B1262127912A112E5
:10015000B912BF12E4120D1319131F1346136A13B9
:1001600083139813A213B113BC13CA13DF13EC1338
:10017000F413FF131E142B143A144614531478145A
:100180009414B614C814EB14FC14FD140F152115A7
:100190002C1546155115661571157915811589159A
:1001A00091159915A115A915B515CC15DF15F315E0
:1001B000F91509161FFFFFFFFFFFFFFC7FFFFFFF81
:1001C000FFFFFFFE7FFFFFFFFFFFFFFFFFFFFFFFC0
:1001D000FFFFFFFFE00000000000001FE000000044
:1001E0000000001FE00000000000001FE01000FF02
:1001F000F000001FE07C01FFF800001FE07E03FF1D
:10020000FC00001FE0FE03FFFC00001FE0FE03FFF8
:10021000FC00001FE0FE03FFFC00000FE0FE01FFFA
:10022000F800000FE0FE01FFF800000FE0FE00FF05
:10023000F000000FE0FE00000000000FE0FE0000F4
:100240000000000FE0FE0000003E000FE0FE000096
:10025000007F000FE0FE000000FF800FE0FE0000C6
:1002600000FF800FE0FE000000FF800FE0FE0000B6
:1002700000FF800FE0FE0000007F800FE0FE000026
:10028000003F000FE0FE0000000C000FE0FE000049
:100290000000000FE0FE00000000000FE0FE000084
:1002A0000000000FE0FE00000000000FE0FE000074
:1002B0007000000FE0FE0001FC00000FE0FE0001F6
:1002C000FE00000FE0FE0003FF00000FE0FE000351
:1002D000FF80000FE0FE0003FFC0000FE0FE000300
:1002E000FFE0000FE0FE0001FFE0000FE0FE000075
:1002F000FFF0000FE0FE00007FF0000FE0FE0000C6
:100300007FF0000FE0FE00001FE0000FE0FE0000A5
:100310001FE0000FE0FE00000FC0000FE0FE000035
:100320000000000FE0FE00000000000FE0FE0000F3
:100330000000700FE0FE00000001FC0FE0FE000076
:100340000003FC0FE0FE00000003FE0FE0FE0000D3
:100350000003FE0FE0FE00000003FE0FE0FE0000C1
:100360000003FE1FE0FE00000001FC1FE0FE000095
:100370000000F81FE07C00000000001FE0180000F3
:100380000000001FE00000000000001FE00000006F
:100390000000001FFFFFFFFFFFFFFFFF7FFFFFFFCA
:1003A000FFFFFFFE7FFFFFFFFFFFFFFE1FFFFFFFBF
:1003B000FFFFFFF8000000000000001FFFF000003A
:1003C000000000000000001000100000000000000D
:1003D00000000010001000000000000000000010ED
:1003E000001000000000000000003FFE001FC000E1
:1003F0000000000000003FFE000040000000000080
:1004000000003FFE000040000000000000003FFE32
:1004100000007C00000000000007FFFFE07C0400FB
:10042000000000000007FFFFE0440400000000009F
:100430000007FFFFE0440400000000000007FFFF8A
:10044000E0440400000000000007FFFFFFC40400B8
:100450000000000000003FFFFF0404000000000057
:1004600000003FFFFF0404000000000000003FFF09
:10047000FF0404000000000000003FFFE00407004C
:100480000000000000002881E004010000000000DE
:1004900000002881E00401000000000001FFE88165
:1004A000E0FF81000000000001100F81E0FF81F0FB
:1004B0000000000001100F81E0FF8010000000002C
:1004C000011FEF81E0FF80100000000001102F816C
:1004D000E7FF80100000000001102F8007FFFF10D1
:1004E000000000000110200007FF81100000000044
:1004F0000110200007FF81100FFFFFFFFF1FE00129
:10050000FFFFC1F00FFFFFFFFF10000100004000E0
:100510000FFFFFFFFF100001000040000FFFFFFF73
:10052000FF100001000040000FFFFFFFFF10007FE1
:10053000FFFE7E007FFFFFFFFF10007FFFFE020037
:100540007FFFFFFFFF10007FFFFE02007FFFFFFF26
:10055000FF10007FFFFE02000FFFFFFFFF13E07F91
:10056000FFFE02000FFFFFFFFF12207FFFFFE200F0
:100570000FFFFFFFFF12207FFFFFE2000FFFFFFFD3
:10058000FF12207FFFFFE2000FFFFFFFFF1FFFFFB3
:10059000FFFFE3C0000000000110007FFFFFE0400C
:1005A000000000000110007FFFFFE040000000009D
:1005B0000110007FFFFFE0400000000001101FFF5E
:1005C000FFFFE07800000000011E1F801FFC0008F4
:1005D0000000000001021F801FFC00080000000056
:1005E00001021F801FFC00080000000001FE1FFF29
:1005F000F000007F0000000000001FFFF000007FFF
:100600000000000000001FFFF000007F000000005D
:1006100000001FFFF000007F000000000003FFFF4C
:10062000F00003FF000000000003FC00000003FFD7
:10063000000000000003FC00000003FF00000000B9
:100640000003FC00000003FF00000000007FFFFF2C
:10065000FFFFFFFF00000000007FFF8000003FF869
:1006600000000000007FFF8000003FF80000000055
:10067000007FFF8000003FF8000000000000000045
:10068000000000000000000000000000000000006A
:10069000000000000000000000000000000000005A
:1006A000000000000000000000000000000000004A
:1006B000000000000000000000000000000000003A
:1006C000000000000000000000000000000000002A
:1006D000000000000000000000000000000000001A
:1006E00000003FE00FFFF007FC0000202008001092
:1006F00004040000202008001004040000203C78BE
:10070000001E3C04000020044FFFF22004000020E3
:10071000044FFFF22004000020044FFFF2200400E9
:10072000003FFFFFFFFFFFFC00003FE67FFFFE678B
:10073000FC00003FE67FFFFE67FC00003FFFFFFF7D
:10074000FFFFFC00003FE3FFFFFFC7FC00003FE3AB
:10075000FFFFFFC7FC00003FE3FFFFFFC7FC0000F7
:100760003FE3FFFFFFC7FC00003FE3890091C7FCA8
:1007700000003FE3890091C7FC00003FE38F00F1D8
:10078000C7FC00003FE00F00F007FC00003FE00F57
:1007900000F007FC00003FE00F00F007FC00000144
:1007A000FC0000003F80000001FC0000003F8000D2
:1007B0000001FC0000003F80000001FF80FF01FFFE
:1007C00080000001FF80FF01FF80000001FF80FF2B
:1007D00001FF80000001FFB0FF0DFF800000003F1F
:1007E000C8FF13FC000000003FC8FF13FC0000001E
:1007F000003FC8FF13FC000000003FCFFFF3FC00E8
:100800000000003C0000003C000000003C00000034
:100810003C000000003C0000003C00000000200004
:1008200000000400000000200000000400000000A0
:10083000200000000400000000200FFFF004000072
:100840000000200FFFF00400000000200FFFF00464
:10085000000000003FFFFFFFFC000000003FFF0022
:10086000FFFC000000003FFF00FFFC000000003F15
:10087000FF00FFFC00000000200FFFF0040000005C
:1008800000200FFFF00400000000200FFFF0040024
:10089000000000200FFFF004000000002000000016
:1008A00004000000002000000004000000003FFFE2
:1008B000FFFFFC0000000003FF00FFC0000000007D
:1008C00003FF00FFC00000000003FF00FFC00000A6
:1008D000000003FF00FFC00000000003FF00FFC096
:1008E0000000000003FF00FFC00000000003FF0045
:1008F000FFC0000000000000000000007FFFC07388
:10090000E007FFFE7FFFC073E007FFFE6001CE70CF
:100910007F07000E6001CE707F07000E67F9C003ED
:1009200083073FCE67F9C00383073FCE67F9C00353
:1009300083073FCE67F9CFF3FCE73FCE67F9CFF3EC
:10094000FCE73FCE67F9C18000073FCE67F9C18061
:1009500000073FCE67F9C18000073FCE6001CF8F0F
:10096000E307000E6001CF8FE307000E7FFFCE7319
:100970009CE7FFFE7FFFCE739CE7FFFE7FFFCE73F9
:100980009CE7FFFE000001FC1F000000000001FCCE
:100990001F0000007FF9FF8C7CF8C6307FF9FF8CC8
:1009A0007CF8C6307FF9FF8C7CF8C63060C00E73CF
:1009B000E018C00060C00E73E018C000783FFE7001
:1009C0007F07FE3E783FFE707F07FE3E783FFE7059
:1009D0007F07FE3E003E0E039F00F83E003E0E03E2
:1009E0009F00F83E07F9FFF3FFFF3FCE07F9FFF343
:1009F000FFFF3FCE07F9FFF3FFFF3FCE783E318088
:100A000060E0C000783E318060E0C0006007C18FC8
:100A10009FE0F9FE6007C18F9FE0F9FE6007C18F7C
:100A20009FE0F9FE67000E7C1CF8C00067000E7C9A
:100A30001CF8C000603FC1FC00FFFFCE603FC1FC5E
:100A400000FFFFCE603FC1FC00FFFFCE00000FF3B0
:100A5000E3E0380000000FF3E3E038007FFFCE70E2
:100A60007CE7383E7FFFCE707CE7383E7FFFCE705C
:100A70007CE7383E6001C1F3E0E0383E6001C1F33D
:100A8000E0E0383E67F9CF839FFFF9FE67F9CF8337
:100A90009FFFF9FE67F9CF839FFFF9FE67F9CE004C
:100AA000031FFE3E67F9CE00031FFE3E67F9CF8F9E
:100AB00083F8C1CE67F9CF8F83F8C1CE67F9CF8FA6
:100AC00083F8C1CE6001CF8C1FE73E0E6001CF8C52
:100AD0001FE73E0E7FFFCE7C0018FFFE7FFFCE7C1F
:100AE0000018FFFE7FFFCE7C0018FFFE0000000014
:100AF00000000000000000000000000000000000F6
:100B000000000000000000000000000000000000E5
:100B100000000000000000001FF9C1E3FE07FE0F07
:100B2000E0FF87071FF9C1E3FE07FE0FE0FF87071D
:100B300003C1C1E70780F03C79C1E7C703C1C1E742
:100B40000780F03C79C1E7F703C1C1E70780F07087
:100B500001C1E7F703C1FFE70780F07001C1E7FFBC
:100B600003C1FFE70780F07001C1E7FF03C1C1E7E0
:100B70000780F07001C1E73F03C1C1E70780F03C87
:100B800079C1E73F03C1C1E70780F03C79C1E70FB6
:100B900003C1C1E3FE00F00FE0FF870703C1C1E31B
:100BA000FE00F00FE0FF87070000000000000000DB
:100BB0000000000000000000000000000000000035
:100BC0000000000000000000000000000000000025
:100BD0000000000000000000000000000000000015
:100BE0000000000000000000000000000000000005
:100BF00000000000000000000F0383CFFC0F038300
:100C0000CFFC31C3E7CE0031C1E70FFCF0F1FF0F9D
:100C1000FCF0F07E000FF0F07E000FF0F1FF000F0F
:100C200038C1E70E0F38C3E7CE0F0F0383C7FC0FA1
:100C30000383C7FC0000000000000000000000006B
:100C40000000000000000000202020422020202082
:100C5000202020204120202020002020204E6F2016
:100C6000202020202059657320202000497320690E
:100C7000742050617274792054696D653F00436837
:100C8000696361676F2C20494C203630363534005B
:100C90003536205720496C6C696E6F697320537428
:100CA00000546865556E64657267726F756E640096
:100CB000536174757264617920342F323600414675
:100CC000544552504152545900776F726B73686F9C
:100CD0007038382E636F6D00626164676573202819
:100CE000646F742900526567697374657220486582
:100CF00072653A00000F00000000000000090000CB
:100D000000000000000900000000000000090000D1
:100D1000000000000030C000000000000020400083
:100D20000000000000204000000000000020400003
:100D30000000000000C03000000000000080100033
:100D40000000000000801000000000000080100083
:100D50000000000003000C0000000000020004007E
:100D60000000000002000400000000000200040077
:100D7000000000000C00030000000000080001005B
:100D80000000000008000100000000000FFFFF004D
:100D900000000000F04020F00000000090C0309003
:100DA000000000008D3FCB1000000000873FCC10FA
:100DB00000000000FAFFF7F0000000009EFFF7902F
:100DC0000000000093000C900000000093000C90C5
:100DD000000000009030C090000000009030C090F3
:100DE000000000004C00032000000000440002202E
:100DF00000000000430F0C2000000000410F0820FD
:100E00000000000041CF38200000000041402820B1
:100E100000000000323FC4C0000000001200048047
:100E20000000000012000480000000001C0003808D
:100E300000000000103FC08000000000103FC08094
:100E4000000000001FF0FF80000000001FF0FF8086
:100E500000000000103FC08000000000103FC08074
:100E60000000000010000080000000001000008062
:100E7000000000000FFFFF000000000003F0FC0076
:100E80000000000003F0FC000000000003F0FC0084
:100E90000000000000000000000000000000000052
:100EA0000000000000000000000000000000000042
:100EB0000000000000000000000000000000000032
:100EC0000000000000000000000000000000000022
:100ED0000000000000000000000000000000000012
:100EE0000000000000000000000000000000000002
:100EF0000000000020202042202020202020202050
:100F0000412020202000202020503120202020209F
:100F10002050322020202000434F4D504C45544556
:100F2000210053434F52453A200047414D45204F41
:100F30005645520054484F54434F4E2030783500A8
:100F400047616D65005363686564756C6500476152
:100F50006D654C696E6B00526567697374657200EC
:100F600048656C7000547261636B204F6E6500546D
:100F70007261636B2054776F004C61627300566935
:100F80006C6C616765005061727479003038333081
:100F900000303934350031303030003131303000FC
:100FA00031323030003133303000313430300031C4
:100FB00035303000313630300031373030003137A5
:100FC0003330003138333000313933300032303390
:100FD0003000323130300032313230003131303097
:100FE00000313133300031323030003132333000B3
:100FF000313330300031343330003135303000316E
:10100000353330003136303000313633300031374F
:10101000303000313733300031383030003131304A
:101020003000313230300031333030003134303044
:101030000031363030003137303000313830300058
:10104000444F4F52530048454C4C4F0055464F7348
:101050000A20616E64200A476F7665726E6D656E58
:10106000740043726F7764736F757263696E670A99
:10107000596F757220436973636F0A4669726577A9
:10108000616C6C73004A75737420576861740A54FC
:10109000686520446F63746F720A4F72646572658D
:1010A000643F00425245414B0054686520506572D0
:1010B000666563746C790A4C6574696D617465204A
:1010C00050726F6A6563740049742041696E2774B9
:1010D0000A526F636B657420536369656E636500C4
:1010E000496E74726F647563696E6720696462002B
:1010F000425245414B005375727665696C6C696E5E
:10110000672049500A4365726120536563757269AF
:101110007479005068697368696E67204672656EFD
:101120007A7900427265616B696E67204275730A55
:101130005469636B657473004841434B45522042C8
:1011400052455700434C4F53494E4700004F5045BE
:101150004E00633766697665005269636861726440
:1011600020546869656D6500436C617564697573C9
:1011700020262620477561790053636F74742045DB
:101180007276656E00204452494E4B2042454552CE
:101190000A45415420464F4F445320004F27436F88
:1011A0006E6E6F7220262620446F62626500446175
:1011B000766964204D6F72746D616E0044616E6972
:1011C000656C20412E204D617965720020445249A2
:1011D0004E4B204D4F524520424545520A45415401
:1011E000204D4F524520464F4F4420004D61726BB9
:1011F000205374616E69736C6F76004D6343616E4A
:101200006E200A2052696E67776F6F64004D696BBC
:1012100065204A61636B736F6E00434F4E544553B4
:101220005420524553554C54530052454D41524B56
:10123000530053595336343733380044696769745F
:1012400069616C2041747461636B730A696E207408
:1012500068650A506879736963616C205265616CD6
:101260006D00576972656C6573730A44726F6E65C1
:1012700020537472696B657300506F6B696E6720E1
:101280005468726F7567680A746F207468652048C7
:10129000656172740A6F6620612042696E617279BD
:1012A00000526574726F6163746976650A5769727A
:1012B0006574617070696E6700425245414B005918
:1012C0006F757220506572736F6E616C0A496E663D
:1012D0006F726D6174696F6E0A4973204F6E6C692D
:1012E0006E653F00456C656374726F6E69630A4496
:1012F00065766963652053656172636865730A6129
:10130000742074686520426F7264657200502E49C3
:101310002E532E532E452E4400425245414B00542D
:101320007261697473204265747765656E0A412045
:10133000536F6320456E670A26206120536F6369EF
:101340006F7061746800313020436F6D6D616E6441
:101350006D656E74730A6F662049520A28466F7273
:10136000204861636B657273290059656C6C696E06
:10137000672061740A6D616E6167656D656E742EBC
:101380002E2E0020427970617373696E670A2045C2
:101390004D455420342E31004772617065204170F4
:1013A00065005061726B6572205363686D69747477
:1013B0000077686973746C65706967004A6F686E5E
:1013C0002042616D62656E656B004452494E4B2050
:1013D000424545520A45415420464F4F44530077F9
:1013E0006869746568617431393639004D657272A7
:1013F000696C6C004A6F652043696365726F0044D5
:1014000052494E4B204D4F524520424545520A45C8
:101410004154204D4F524520464F4F4453004A2ED1
:101420002053696E676C65746F6E004C65736C65F4
:1014300079204361726861727400416C6578204D57
:1014400075656E747A004A617265642044654D6FFB
:10145000747400427265616B696E670A456E6372EF
:10146000797074696F6E0A772F204F7363696C6CA3
:101470006F73636F706573004275696C64696E6742
:101480002061204750550A437261636B696E672083
:101490005269670053796E746865746963204D6F93
:1014A00062696C650A4D616C7761726520416E619D
:1014B0006C797369730054686520436176616C725E
:1014C0007920697320557300486172647761726591
:1014D0000A4861636B696E6720666F720A436865CC
:1014E00061702044756D6D69657300546172676544
:1014F000746564204D616C776172650000447565A8
:1015000068722026262042616C6475636369004618
:101510006F736161656E2026262047727562657261
:101520000044617669642053686177004272616E9D
:101530006420262620457276656E0A426561752014
:10154000576F6F6473004B6576696E20426F6E67EC
:1015500000776172746F7274656C6C0A2066757ABC
:101560007A796E6F70002E2F53485554444F574E62
:10157000005461626C652030005461626C652031FA
:10158000005461626C652032005461626C652033E6
:10159000005461626C652034005461626C652035D2
:1015A000005461626C65203600576F726B73686F10
:1015B00070203838004861636B6572730A20666F6B
:1015C000720A204368617269747920004C6F636B02
:1015D000205069636B200A56696C6C61676500482E
:1015E00041434B455220425245570A434F4E5445C2
:1015F0005354004F5741535000436972636C652048
:101600004369747920436F6E0054686520436176A6
:10161000616C727900FFD0FFE0FFC1FFD1E240A111
:10162000C0A6A22F27810EFA90A4AFFF64A5FF6485
:10163000FF64A4FFD0FFFEFFE0FFD11000FFFE011A
:10164000060C00FE070135026B207FFE0AFE08FE35
:101650000C006022176780808080800080173363D1
:10166000A0A0A002566650F85050F85001596920C9
:1016700070A8A07028A87020025767C8C810204022
:10168000989802576740A0A040A8906827136380ED
:10169000808011396920404080808040402011398D
:1016A0006980404020202040408002576720A87079
:1016B0002070A8200355652020F8202001336360A6
:1016C00060C0055161F8122262C0C002576708105D
:1016D0001020404080124767609090909090601278
:1016E000376740C040404040E002576770880810AC
:1016F0002040F8025767F8081030088870025767D2
:1017000010305090F81010025767F880F0080888E1
:1017100070025767304080F0888870025767F80879
:101720001010202020025767708888708888700207
:10173000576770888878081060122565C0C000C09F
:10174000C00136666060006060C01335652040806F
:101750004020045363F800F8133565804020408032
:10176000025767708810202000200257677088B8E1
:10177000A8B88070025767708888F88888880257F0
:1017800067F04848704848F002576770888080804A
:101790008870025767F04848484848F0025767F891
:1017A0008080F08080F8025767F88080F080808029
:1017B0000257677088808098887002576788888889
:1017C000F8888888123767E04040404040E0025780
:1017D00067381010101090600257678890A0C0A062
:1017E0009088025767808080808080F802576788E1
:1017F000D8A8888888880257678888C8A898888861
:1018000002576770888888888870025767F08888D0
:10181000F080808002576770888888A89068025797
:1018200067F08888F0A090880257677088807008F9
:101830008870025767F820202020202002576788F0
:1018400088888888887002576788888888505020E0
:1018500002576788888888A8A850025767888850E8
:1018600020508888025767888850202020200257FF
:1018700067F80810204080F8113969E08080808086
:10188000808080E0025767804040201010081139A6
:1018900069E020202020202020E00753632050888A
:1018A000005161F817336380402002556570087855
:1018B00088780257678080F0888888F002556570C4
:1018C0008880887002576708087888888878025569
:1018D000657088F08070025767304840E0404040B3
:1018E000005767708888887808700257678080F092
:1018F000888888881237674000C0404040E010491F
:1019000069100030101010109060025767808088B6
:1019100090E09088123767C04040404040E0025558
:1019200065D0A8A8A8A8025565B0C88888880255BF
:10193000657088888870005767F0888888F0808094
:1019400000576778888888780808025565B0C8808D
:10195000808002556578807008F00257672020F873
:101960002020201802556588888898680255658867
:10197000888850200255658888A8A8500255658837
:101980005020508800576788888850204080025532
:1019900065F8102040F811396920404040804040EF
:1019A000402021196980808080808080808011396A
:1019B0006980404040204040408004536348A890E4
:1019C000FF00000000240027002A002D0030000046
:1019D000000000250028002B002E00310000000030
:1019E000002300260029002C002F00040404040416
:1019F00003040502020202040302020202060606B2
:101A0000060606040402020204040408020110404F
:101A10008040102040804080080204018040201057
:101A20000201108010204040200000000200080E3B
:101A30000000030401000B00000000000000000093
:101A400000000000000000070605040100080A0B62
:101A50000C0D0905010902A1010901A1008501057B
:101A600009190129031500250195037501810295C6
:101A700001750581030501093009310938158125F2
:101A80007F750895038106C0C005010906A101857F
:101A900002050719E029E715002501750195088160
:101AA00002950175088103950675081500256505E1
:101AB00007190029658100C0090402000103000024
:101AC000000921010100012265000705840340008F
:101AD0000100000000000000002A2B280000000088
:101AE00000000000000000000000000000000000F6
:101AF000002C9EB4A0A1A2A434A6A7A5AE362D3773
:101B000038271E1F20212223242526B333B62EB7C3
:101B1000B89F8485868788898A8B8C8D8E8F9091DB
:101B200092939495969798999A9B9C9D2F3130A368
:101B3000AD350405060708090A0B0C0D0E0F101130
:101B400012131415161718191A1B1C1DAFB1B0B5B6
:101B500000040309042203550053004200200049F9
:101B6000004F00200042006F0061007200640020FE
:101B700000200020002000180355006E006B006E4E
:101B8000006F0077006E002000200020002000126F
:101B900001000200000040ADD3EFBE0001010200D1
:101BA000011201000202000040ADD3EFBE000101AE
:101BB00002000100C18081C1080B00020202010085
:101BC00009040000010202000005240010010524A0
:101BD0000101010424020605240600010705810312
:101BE00010004009040100020A000000070502027B
:101BF00040000007058302400000D8125829512BED
:101C00002F2E11241FBECFEFDAE0DEBFCDBF11E0D3
:101C1000A0E0B1E0E2E5FEE502C005900D92AC3631
:101C2000B107D9F712E0ACE6B1E001C01D92A03FC8
:101C3000B107E1F71BE1C2E0DCE104C02297FE013D
:101C40000E94232FCA3FD107C9F70E94612A0C9432
:101C5000272F0C940000FB019F01E8944230C4F050
:101C60004532B4F44A3029F497FB1EF490958195DF
:101C70009F4F642F77270E94FA2E805D8A330CF0E5
:101C8000895D8193CB010097A1F716F45DE2519332
:101C90001082C9010C944C0EDC01FC01672F71917C
:101CA0007723E1F7329704C07C916D937083629142
:101CB000AE17BF07C8F3089520E030E060E070E0A1
:101CC00011C04081413011F0433011F46F5F7F4FFC
:101CD0000196319687309105A1F72F5F3F4F233052
:101CE000310569F0F90183E0EE0FFF1F8A95E1F7F6
:101CF000E21BF30BE451FE4F80E090E0E2CF7093E3
:101D000004026093030208951F93CF93DF938370BF
:101D100090E0182F110F8C7F64E070E00E940E2F6E
:101D200040E050E0C0E0D0E085E1689FB0011124C0
:101D300015C08D9190E0012E02C0959587950A946B
:101D4000E2F7837081932F5F3F4F2730310589F78A
:101D50004F5F5F4F27964330510591F0DE01A60F8C
:101D6000B71FA85FBE4FFA0193E0EE0FFF1F9A95D1
:101D7000E1F7E41BF50BE451FE4F20E030E0D9CF52
:101D8000DF91CF911F910895FF920F931F93F82E2B
:101D900010920602109205028093110228E030E0B2
:101DA0003093B1012093B0013093B3012093B2017D
:101DB000A0E1B0E0B093B501A093B401E0E3F0E09E
:101DC000F093B901E093B80160E570E07093B7015A
:101DD0006093B60140E750E05093BB014093BA01D5
:101DE0008FEF9FEF9093BD018093BC019093BF0153
:101DF0008093BE011092C3011092C2011092C101E2
:101E00001092C0013093C5012093C4013093C701E3
:101E10002093C601B093C901A093C801F093CD01EE
:101E2000E093CC017093CB016093CA015093CF0132
:101E30004093CE019093D1018093D0019093D30130
:101E40008093D2011092D5011092D40101E010E0EC
:101E50001093D7010093D6013093D9012093D80174
:101E60003093DB012093DA01B093DD01A093DC0114
:101E7000F093E101E093E0017093DF016093DE01F4
:101E80005093E3014093E2019093E5018093E401D4
:101E90009093E7018093E6011092E9011092E80126
:101EA0001093EB010093EA0180E691E09093080221
:101EB000809307028F2D0E94840EFF2011F485E08D
:101EC00001C081E080930F021F910F91FF90089550
:101ED000FC0182899389892BA9F42481358186812B
:101EE00097818617970774F060567F4F62177307C4
:101EF0004CF00AC080E0405C5F4F421753071CF073
:101F000081E0089580E0089520853185828593855C
:101F100084179507BCF3EECF0F931F93CF93DF93F6
:101F2000FC01EB018A01848595858617970731F4BA
:101F3000868597858417950709F446C08681978121
:101F400024813581820F931F62E070E00E940E2F82
:101F50009B01A085B185628573852C173D072CF107
:101F6000CE0180569F4F82179307FCF0CB018A0F5A
:101F70009B1F62E070E00E940E2F601771076CF0EB
:101F8000C801805C9F4F861797073CF08081918144
:101F9000909581959F4F91838083828193819095C5
:101FA00081959F4F9383828307C080819181909513
:101FB00081959F4F9183808381E090E0918B808B0E
:101FC000D587C48717870687DF91CF911F910F911F
:101FD00008957F928F929F92AF92BF92CF92DF929D
:101FE000EF92FF920F931F93CF93DF93882E792E5A
:101FF0009924E12C42E0F42ECC24DD2497C0005239
:102000001F4F8881813008F47CC0833020F08330FA
:1020100009F077C029C0992009F073C0882D972D49
:10202000B801A7010E94680F882309F46AC0809153
:10203000050290910602892B41F4882D972DB80155
:10204000A7010E948C0F9924939480910102909192
:1020500002020196909302028093010288818230ED
:1020600009F44FC018824DC0992009F04AC0882D4C
:10207000972DB801A7010E94680F882309F441C079
:102080008091C2019091C301892B19F080EB91E0FE
:1020900011C08091D6019091D701892B19F084EC61
:1020A00091E008C08091EA019091EB01892B61F0E9
:1020B00088ED91E0DC01882D972D9C01F90184E1E8
:1020C00001900D928150E1F7882D972DB801A7015D
:1020D0000E948C0F809101029091020201969093D0
:1020E000020280930102F60133E0EE0FFF1F3A95E2
:1020F000E1F7EC19FD09EA0DFB1DE451FE4F1082DA
:1021000024C00894A11CB11C219685E00036180754
:1021100009F075CF0894C11CD11C90E0E91693E03A
:10212000F90699F080E890E0E80EF91EE60123E058
:10213000CC0FDD1F2A95E1F7CC19DD09C451DE4F24
:1021400000E210E0AA24BB245CCFDF91CF911F9165
:102150000F91FF90EF90DF90CF90BF90AF909F9046
:102160008F907F900895FC0184819581181619063F
:1021700014F420E008C080819181909581959F4F53
:102180009183808321E0868197818054964044F03A
:1021900080819181909581959F4F9183808321E0EB
:1021A000808591851816190664F081E090E0938B84
:1021B000828B82819381909581959F4F93838283B7
:1021C00021E0828593858058934044F082819381F9
:1021D000909581959F4F9383828302C0222351F073
:1021E00081E090E0918B808B8FEF9FEF95878487C4
:1021F000978786870895EF92FF920F931F93CF934F
:10220000DF93FC018B0182899389892B09F06BC0D4
:102210008FEF9FEF95878487978786878681978141
:1022200024813581820F931F62E070E00E940E2F9F
:102230009B014085518582859385D8011296ED904A
:10224000FC9013976E157F050CF442C01496CD9147
:10225000DC911597C617D707DCF1840F951F62E054
:1022600070E00E940E2F60517040428153816132B4
:10227000710570F480819181909581959F4F918334
:10228000808388279927841B950B9383828327C09B
:1022900088279927841B950B93838283CE018E0D0B
:1022A0009F1D62E070E00E940E2FCB01D8016D915E
:1022B0007C9154E0759567955A95E1F7821B930BD5
:1022C0000E940E2F709561957F4F7183608307C0C8
:1022D00080819181909581959F4F9183808381E04A
:1022E00090E0918B808BDF91CF911F910F91FF90A8
:1022F000EF900895FC01DB0182899389892B11F508
:102300006481758114964D915C9115972681378172
:1023100012968D919C911397281739079CF04617B8
:10232000570784F004C02133310544F00895208517
:1023300031858285938540972CF0F5CFCF01BD0183
:102340000E94FB100895FC0180819181409724F048
:1023500080E190E09183808382819381089724F0CB
:1023600088E090E09383828382819381892BE1F4DA
:1023700088EF9FEF938382838481958120813181CF
:10238000820F931F9583848386819781820F931F89
:10239000978386838085918508979187808782853A
:1023A000938508979387828708950F931F93CF9300
:1023B000DF93EC018B010E94A3118C819D81288108
:1023C0003981820F931F9D838C838E819F81820F21
:1023D000931F9F838E83888599852A813B81820FF5
:1023E000931F998788878A859B85820F931F9B8778
:1023F0008A87198A188ACE010E94E90F88899989EB
:10240000892B71F4CE010E94B31088899989892B98
:1024100039F40115110521F0CE01B8010E947A119D
:1024200088899989892BE1F08C819D812881398166
:10243000820F931F9D838C838E819F81820F931FB8
:102440009F838E83888599852A813B81820F931F84
:10245000998788878A859B85820F931F9B878A87A8
:10246000DF91CF911F910F91089580910502909176
:1024700006028330910534F003979093060280930F
:10248000050204C0109206021092050280910F020C
:10249000833009F461C0843030F48130C9F0823077
:1024A00009F070C04EC0853039F0853008F45BC04B
:1024B000863009F067C002C086E03DC080911002FE
:1024C000815080931002882309F05CC081E041C0F4
:1024D00080EB91E067E072E00E94D51184EC91E01E
:1024E00067E072E00E94D51188ED91E067E072E04C
:1024F0000E94D5118091C2019091C301892B91F066
:102500008091D6019091D701892B61F08091EA01E9
:102510009091EB01892B31F082E080930F0280E5EE
:10252000809310020E945C0E80910302909104023D
:10253000892B41F584E080930F0280E5809310029F
:102540000895809110028150809310028823D1F465
:1025500083E080930F02089581E080930F0280E072
:102560000E94C40E08958091100281508093100241
:10257000882341F481E080930F02809111028F5FE4
:102580000E94C40E0895FF920F931F938C01262F73
:10259000FC01F3AC04966F2D44AD0E944122F80E6D
:1025A000F801F3AE81E090E01F910F91FF90089544
:1025B000EF92FF920F9310926F0110926E016EE6F0
:1025C000E62E61E0F62E88E491E0F7019293829383
:1025D0007F01CF0166E271E041E12BE00FEF0E9445
:1025E000CA1D80E491E0F701918380830F91FF90F1
:1025F000EF9008958091050161E00E94B92868EA92
:1026000070E080E090E00E947D278091050160E00D
:102610000E94B92868EA70E080E090E00E947D277F
:102620008091050161E00E94B92868EA70E080E0CD
:1026300090E00E947D278091050160E00E94B9280A
:1026400068EA70E080E090E00E947D2780910501BB
:1026500061E00E94B92868EA70E080E090E00E94A2
:102660007D278091050160E00E94B92860E471E057
:1026700080E090E00E947D278091050161E00E944A
:10268000B92868EE73E080E090E00E947D27809199
:10269000050160E00E94B92868EA70E080E090E0FF
:1026A0000E947D278091050161E00E94B92868EEB3
:1026B00073E080E090E00E947D278091050160E05A
:1026C0000E94B92868EA70E080E090E00E947D27CF
:1026D0008091050161E00E94B92868EE73E080E016
:1026E00090E00E947D278091050160E00E94B9285A
:1026F00068EA70E080E090E00E947D27809105010B
:1027000061E00E94B92868EA70E080E090E00E94F1
:102710007D278091050160E00E94B92868EA70E099
:1027200080E090E00E947D278091050161E00E9499
:10273000B92868EA70E080E090E00E947D278091EF
:10274000050160E00E94B92868EA70E080E090E04E
:102750000E947D278091050161E00E94B92868EA06
:1027600070E080E090E00E947D278091050160E0AC
:102770000E94B92881E0809313020895CF93DF93DC
:10278000EC018DAD882331F481E08DAFCE0104964C
:102790000E94CF23CE0104960E94DF23DF91CF91C8
:1027A0000895EF92FF920F93CF93DF93EC018CE6A5
:1027B00091E00E94BE1380E791E06FE040E029E0E5
:1027C00000E47E010E94FB1D80E791E00E94E5236A
:1027D000882389F7DF91CF910F91FF90EF900895B3
:1027E000EF92FF920F93CF93DF93EC018CE691E091
:1027F0000E94BE1380E791E063E040E02CE000E43B
:102800007E010E94FB1D80E791E00E94E523882362
:1028100089F7DF91CF910F91FF90EF900895EF929C
:10282000FF920F9380E791E061E00E940F248CE615
:1028300091E00E94BE1380E791E063E140E028E070
:1028400000E474EFE72E78E0F72E0E94FB1D80E78E
:1028500091E00E94E523882371F768EB7BE080E03C
:1028600090E00E947D270F91FF90EF900895EF92E6
:10287000FF920F931F9310E48CE691E00E94BE1329
:1028800080E791E060E0412F2CE004E1A4EFEA2E24
:10289000AAE0FA2E0E94FB1D80E791E00E94E5234A
:1028A000882371F762E370E080E090E00E947D276A
:1028B00011501B3009F768EE73E080E090E00E9451
:1028C0007D278CE691E00E94BE1380E791E060E0F6
:1028D0004CE02CE004E1F4EFEF2EFAE0FF2E0E9432
:1028E000FB1D80E791E06FE148E125E0E4EEEE2E8C
:1028F000EBE0FE2E0E94FB1D80E791E00E94E523A5
:10290000882319F768EB7BE080E090E00E947D2748
:102910001F910F91FF90EF900895EF92FF920F9308
:10292000CF93DF93EC018CE691E00E94BE1380E729
:1029300091E063E140E028E000E47E010E94FB1D9D
:1029400080E791E00E94E523882389F768EB7BE02C
:1029500080E090E00E947D27DF91CF910F91FF9062
:10296000EF9008950F9380E791E061E00E940F24BB
:102970008CE691E00E94BE1380E791E064E140E0C4
:102980002EEB3CE00E94F02180E791E06CE04AE011
:1029900020EB3CE00E94F02180E791E060E044E120
:1029A00026E604E10E945D2280E791E068E044E1D0
:1029B00021EA3CE00E94F02180E791E063E04EE1F3
:1029C00020E93CE00E94F02180E791E061E048E2EC
:1029D0002EE73CE00E94F02180E791E00E94E52391
:1029E000882351F668EB7BE080E090E00E947D2731
:1029F0008CE691E00E94BE1380E791E061E044E143
:102A00002CE63CE00E94F02180E791E063E04EE19B
:102A10002AE53CE00E94F02180E791E063E048E293
:102A200028E43CE00E94F02180E791E00E94E52349
:102A3000882311F70F910895CF92DF92EF92FF92C2
:102A40000F931F93DF93CF93CDB7DEB729970FB6C0
:102A5000F894DEBF0FBECDBFFE01319689E0DF01E5
:102A60001D928A95E9F700E010E07F018EE792E081
:102A7000B8010E941627F701E00FF11F80830F5F56
:102A80001F4F0930110591F719868CE691E00E94DD
:102A9000BE137E010894E11CF11CB6E6CB2ED12CAE
:102AA00080E791E06CE04AE025EE3CE00E94F021F6
:102AB00080E791E060E044E126E604E10E945D22C7
:102AC00080E791E064E144E128ED3CE00E94F021E0
:102AD00080E791E068E04EE129EC3CE00E94F021C3
:102AE00080E791E0B7010E943D219601281B310942
:102AF000C90162E070E00E940E2F80E791E042E39E
:102B000097010E94192280E791E00E94E523882323
:102B100039F629960FB6F894DEBF0FBECDBFCF9120
:102B2000DF911F910F91FF90EF90DF90CF9008956C
:102B300010921602809100010E94EC28892B19F452
:102B400081E0809316028091AA010E94EC28892BD3
:102B500029F480911602826080931602809101010F
:102B60000E94EC28892B29F48091160280618093C1
:102B70001602809102010E94EC28892B29F4809191
:102B80001602806280931602809104010E94EC2854
:102B9000892B29F48091160284608093160280911B
:102BA00003010E94EC28892B29F480911602886089
:102BB0008093160208958091AB018093AC018091BF
:102BC00000010E94EC28892B11F481E007C080915C
:102BD000AA010E94EC28892B21F482E08093AB01AA
:102BE00022C0809101010E94EC28892B11F483E01E
:102BF000F5CF809102010E94EC28892B11F484E02A
:102C0000EDCF809104010E94EC28892B11F485E01E
:102C1000E5CF809103010E94EC28892B11F486E016
:102C2000DDCF1092AB019091AC018091AB01981770
:102C300019F49093AD0108951092AD0108951F937A
:102C4000CF93DF931092AF011092AE01C8ECD0E0A9
:102C500067C00E94DB158091AD01843009F467C024
:102C6000882381F48091AE019091AF0101969093F9
:102C7000AF018093AE016FE070E080E090E00E94D1
:102C80007D2704C01092AF011092AE018091AE0179
:102C90009091AF0163E070E00E94FA2E182F80E758
:102CA00091E00E94042780E791E061E00E940F24F8
:102CB000113049F0113018F0123069F408C084EB7B
:102CC00093E00E94F01384EB96E00E94D11384EB12
:102CD00093E00E94F01380E791E00E94EB26809140
:102CE000050161E00E94B928812F90E08370907007
:102CF0008C9FB0018D9F700D9C9F700D11248827B3
:102D000077FD8095982F0E947D278091050160E0D6
:102D10000E94B92868EA70E080E090E00E947D2778
:102D20008091AE019091AF014E9708F492CFDF9160
:102D3000CF911F9108951F93809104010E94EC2868
:102D4000892B11F010E011C080910D0290910E02BC
:102D50002FEF843E92071CF480EE9FEF01C0049792
:102D600090930E0280930D0211E0809103010E9466
:102D7000EC28892B81F480910D0290910E028D3107
:102D800091051CF080E290E001C0049690930E0241
:102D900080930D0211E0809100010E94EC28892BA4
:102DA00009F411E08091AA010E94EC28892B91F08E
:102DB000112381F480910D0290910E0218161906CC
:102DC00014F4049703C0009729F0049690930E0220
:102DD00080930D021F910895282F672B31F089E809
:102DE00092E0622F0E94DC29089589E892E0622F28
:102DF0000E9499290895EF92FF920F938CE691E03B
:102E00000E94BE1380E791E063E04EE126E03FE0E0
:102E10000E94F02180E791E063E048E224EF3EE089
:102E20000E94F02180E791E00E94E523882351F77A
:102E300064EF71E080E090E00E947D278CE691E0F5
:102E40000E94BE130E94DB158091AD01843039F4DD
:102E500081E090E0909307018093060106C08330E3
:102E600089F7109207011092060180E791E063E272
:102E700048E028E000E434EFE32E3CE0F32E0E942B
:102E8000FB1D80E791E00E94E523882371F789E824
:102E900092E00E9438298AC08091050161E00E9479
:102EA000B92880911602809317020E9498156091AC
:102EB00016028091170286272091060130910701A2
:102EC000082F232BC9F180FF06C070E0617070707D
:102ED0008AED0E94EC1601FF08C06091160270E0B6
:102EE0006270707089ED0E94EC1602FF08C060915C
:102EF000160270E06470707087ED0E94EC1603FF9C
:102F000008C06091160270E06870707088ED0E94D1
:102F1000EC1604FF08C06091160270E060717070DA
:102F200080E80E94EC1605FF41C06091160270E037
:102F30006072707082E838C080FF06C070E0617017
:102F4000707089E60E94EC1601FF08C060911602BD
:102F500070E0627070708BE60E94EC1602FF08C091
:102F60006091160270E0647070708CE60E94EC163E
:102F700003FF08C06091160270E0687070708AE606
:102F80000E94EC1604FF08C06091160270E06071A8
:102F900070708FE60E94EC1605FF08C06091160263
:102FA00070E06072707085E70E94EC168091D90025
:102FB00080FD72CF89E892E00E9439298091050155
:102FC00060E00E94B9280F91FF90EF9008952F9232
:102FD0003F924F925F926F927F928F929F92AF92A9
:102FE000BF92CF92DF92EF92FF920F931F93DF93E6
:102FF000CF93CDB7DEB763970FB6F894DEBF0FBEA1
:10300000CDBF80911D018032A1F0813218F4803152
:10301000C9F505C08034D9F08038A1F526C010E08C
:1030200050EC452E50E0552E48E0A42E41E0B42E41
:1030300025C011E030EE432E30E0532E28E4A22EBE
:1030400021E0B22E92E6C92E91E0D92E1BC012E0EB
:103050008AEF482E80E0582E0CE7A02E01E0B02E1B
:10306000BAE8CB2EB1E0DB2E0DC013E0A8E94A2E62
:10307000A1E05A2EF6EAAF2EF1E0BF2EE8E2CE2E06
:10308000E1E0DE2E4E010894811C911C81E1F401E7
:1030900011928A95E9F78CE691E00E94BE13E12F28
:1030A000F0E0EE0FFF1FEA54FF4F62E0E62E25919D
:1030B00034913B8B2A8B56E6652E712C140180E7E8
:1030C00091E06FE376E10E94722180E791E00E9437
:1030D000262180E791E00E94372180E791E06A890C
:1030E0007B890E945721A301481B5109CA0162E054
:1030F00070E00E940E2F80E791E040E02A893B8932
:103100000E94F02180911402E82FF0E0EE0FFF1FE3
:10311000E40DF51D6591749180E791E00E945721BF
:1031200090911402E92FF0E0EE0FFF1FE40DF51D62
:1031300025913491F301E81BF109CF0162E070E0C1
:103140000E940E2F80E791E04AE00E94F02180E784
:1031500091E060E044E126E604E10E945D22809176
:103160001402E82FF0E0EE0FFF1FEA0DFB1D659142
:10317000749180E791E00E94572190911402873664
:1031800008F457C0E92FF0E0EE0FFF1FEA0DFB1D1A
:103190000591149190E082E0E82EF8018491F1010C
:1031A000E90FF11D80839F5F882341F10F5F1F4F5F
:1031B000F801F490FAE0FF16E9F4F101E90FF11DCE
:1031C000108280E791E0B4010E943D219301281B09
:1031D0003109C90162E070E00E940E2FEF9CA0014E
:1031E000112480E791E094010E941922E3940F5F7B
:1031F0001F4F90E0F8018491882379F6F101E90FDF
:10320000F11D108280E791E0B4010E943D219301FD
:10321000281B3109C90162E070E00E940E2F4AE0CC
:10322000E49EA001112480E791E094010E941922FC
:1032300023C0E92FF0E0EE0FFF1FEA0DFB1D6591A3
:10324000749180E791E00E94572190911402E92F38
:10325000F0E0EE0FFF1FEA0DFB1D25913491A30155
:10326000481B5109CA0162E070E00E940E2F80E7FE
:1032700091E045E10E94F02180911D01803809F420
:103280008DC080911402E82FF0E0EE0FFF1FEC0DCF
:10329000FD1D6591749180E791E00E945721909106
:1032A0001402873608F457C0E92FF0E0EE0FFF1F35
:1032B000EC0DFD1D0591149190E0F8018491F10150
:1032C000E90FF11D80839F5F882341F10F5F1F4F3E
:1032D000F801F490FAE0FF16E9F4F101E90FF11DAD
:1032E000108280E791E0B4010E943D219301281BE8
:1032F0003109C90162E070E00E940E2FEF9CA0012D
:10330000112480E791E094010E941922E3940F5F59
:103310001F4F90E0F8018491882379F6F101E90FBD
:10332000F11D108280E791E0B4010E943D219301DC
:10333000281B3109C90162E070E00E940E2F4AE0AB
:10334000E49EA001112480E791E094010E941922DB
:1033500063E0E62E23C0E92FF0E0EE0FFF1FEC0D37
:10336000FD1D6591749180E791E00E945721909135
:103370001402E92FF0E0EE0FFF1FEC0DFD1D25916B
:103380003491A301481B5109CA0162E070E00E9418
:103390000E2F80E791E042E30E94F02180E791E068
:1033A0000E94E523882309F08ACE63960FB6F8942D
:1033B000DEBF0FBECDBFCF91DF911F910F91FF9068
:1033C000EF90DF90CF90BF90AF909F908F907F90C5
:1033D0006F905F904F903F902F9008950F93FC0156
:1033E00062817381E4E075956795EA95E1F76E5F18
:1033F00080E791E043E026E103E00E9431260F914F
:1034000008950F93FC0182899389892BB1F464811B
:103410007581A4E075956795AA95E1F76E5F408583
:103420005185F4E055954795FA95E1F74E5F80E7B1
:1034300091E023E003E00E9431260F910895AF92BE
:10344000BF92CF92DF92EF92FF920F931F93CF9391
:10345000DF935C018CE691E00E94BE13B6E6CB2EB2
:10346000D12C80E791E06FE376E10E94722180E742
:1034700091E00E94262180E791E00E943721E5013A
:10348000FF2410E0FE016591749180E791E00E94B5
:103490005721E82E80E791E00E94122480911202C9
:1034A000F81669F4412F4F5F80E791E060E026E66F
:1034B0000AE00E94312680E791E00E942524FE0167
:1034C00025913491C6018E19910962E070E00E9445
:1034D0000E2F80E791E0412F0E94F021F394229675
:1034E000165F85E0F81671F680E791E00E94E5230B
:1034F000882309F0B6CFDF91CF911F910F91FF90F4
:10350000EF90DF90CF90BF90AF9008951F9310E0A1
:103510001B3051F0113141F0812F60E00E942C28C6
:10352000812F60E00E94B9281F5F1F3189F78091C9
:10353000000160E00E942C288091000161E00E945F
:10354000B9288091AA0160E00E942C288091AA01EC
:1035500061E00E94B9288091010160E00E942C285E
:103560008091010161E00E94B9288091020160E030
:103570000E942C288091020161E00E94B92880916C
:10358000040160E00E942C288091040161E00E9407
:10359000B9288091030160E00E942C2880910301EA
:1035A00061E00E94B9288091050161E00E942C2809
:1035B0001F91089510927A008091D80080618093C5
:1035C000D8001092AF011092AE0180E791E00E9406
:1035D000EB2680E791E061E00E940F241092AF019A
:1035E0001092AE010E94861A81E0809313028EE74A
:1035F00092E064E670E00E941627882331F00E9472
:10360000371484EB91E00E948D148EE792E064E61B
:1036100070E041E00E941D270895FF920F931F93D1
:10362000182FF62E423071F0433021F1413009F06D
:103630004DC080E791E0612F4F2D2AE004E00E9409
:10364000312644C080E791E0612F4F2D2AE004E04D
:103650000E94312680E791E060E00E940F241F5F06
:10366000F39480E791E0612F4F2D28E002E00E9463
:10367000312627C080E791E0612F4F2D2AE004E03A
:103680000E94312680E791E060E00E940F241E5FD7
:103690002F2D2D5F80E791E0612FF3944F2D0E9435
:1036A000BF250F2D0F5F115080E791E0612F402F54
:1036B0000E94F5231E5F80E791E0612F402F0E945A
:1036C000F52380E791E061E00E940F241F910F91A4
:1036D000FF900895BF92CF92DF92EF92FF920F93E7
:1036E0001F93CF93DF93EE24FF24C12C42E0D42E0E
:1036F0001EC0CE0134E0959587953A95E1F78E5F2F
:103700006B2DF80141918F010E940D1BC052DF4FBC
:10371000F6E0C034DF0769F70894E11CF11C80E88B
:1037200090E0C80ED91E93E0E916F104B1F0C6018D
:1037300024E0959587952A95E1F792E0B92EB80E89
:10374000870183E0000F111F8A95E1F70E191F0909
:1037500004511E4FC0E2D0E0CCCFDF91CF911F913A
:103760000F91FF90EF90DF90CF90BF9008950F934F
:103770001F93DF93CF93CDB7DEB7AD970FB6F89415
:10378000DEBF0FBECDBF0E946A1B80EB91E00E949E
:10379000011A84EC91E00E94011A88ED91E00E94E8
:1037A000011A87E092E00E94EE1980910F028630A4
:1037B00081F480E791E00E94EB2680E791E064E1EC
:1037C00048E224E33FE00E94F02180E791E00E947C
:1037D000042780910F02823059F580910102909167
:1037E00002028E010F5F1F4FB8014AE050E00E94B5
:1037F0002B0E80E791E00E94EB2680E791E068E1E4
:103800004EE12AE23FE00E94F02180E791E068E18A
:1038100048E222E23FE00E94F02180E791E066E486
:1038200048E298010E94192280E791E00E94042753
:1038300080910F02843081F480E791E00E94EB26B2
:1038400080E791E068E148E228E13FE00E94F02152
:1038500080E791E00E940427AD960FB6F894DEBF92
:103860000FBECDBFCF91DF911F910F91089580E0E2
:103870000E94C40E2FC08CE691E00E94BE130E94ED
:10388000B71B80E791E00E94E5238823C1F70E94DF
:103890009B1620910D0230910E02809109029091A9
:1038A0000A02280F391F85E02130380714F020E084
:1038B00035E0C90137FF02C080E090E090930A0232
:1038C00080930902805A9E4F90930C0280930B02C2
:1038D0000E94351280910F02823069F68CE691E0E9
:1038E0000E94BE130E94B71B80E791E00E94E5236F
:1038F0008823C1F78EE792E068EC70E04091010206
:103900000E941D27089580911D018430C1F18530EA
:1039100050F4813009F18130A0F0823021F1833000
:1039200009F040C029C0803291F1813228F48530FD
:1039300089F18031B9F52BC0803449F1803891F597
:1039400026C080E791E00E9404270E94371C80E790
:1039500091E00E94EB2608958093130286EB90E09D
:103960000E941F1A1CC081E090E090930701809391
:1039700006010E94FB1608950E941C15089581E01F
:10398000809313020E940F140E94FA1208C00E9432
:10399000E717089581E0809313020E94B2141092F9
:1039A000130208958CEA90E00E941F1A08959091E6
:1039B000AD01992329F080911502891709F492C06D
:1039C0009093150280911D01803251F0813218F4DC
:1039D000803151F407C0803449F0803829F406C0A2
:1039E0004DE005C040E103C045E001C047E0923032
:1039F00061F0933020F4913009F074C01DC0933011
:103A0000D1F1943009F06EC061C080518F3E50F00A
:103A1000809112028F5F80931202853040F11092E4
:103A2000120225C0809114028F5F809314028417C4
:103A3000F0F0109214021BC080518F3E68F080910C
:103A40001202882319F485E08093120280911202F9
:103A50008150809312020BC080911402882311F4CC
:103A6000409314028091140281508093140281E0EB
:103A70008093130208958F3F39F48091120280934E
:103A80001D01109212021AC08130D9F42091120245
:103A9000243011F485E00AC030E02C5F3F4F81E014
:103AA00090E002C0880F991F2A95E2F780931D01CC
:103AB00080911402481710F4409314020E94831C52
:103AC0000895853079F40E941F16089580518F3E25
:103AD00010F08FEF01C081E080931D01109212025F
:103AE0000E94831C08950E94DB158091AD018823FC
:103AF00081F48091AE019091AF0101969093AF0156
:103B00008093AE016FE070E080E090E00E947D273E
:103B100004C01092AF011092AE018091AE0190915D
:103B2000AF01815D974058F180E791E00E94042742
:103B300080E791E061E00E940F2484EB91E00E9415
:103B40008D1480E791E00E94EB261092AF01109255
:103B5000AE018EE792E064E670E040E00E941D272F
:103B600083B7817F846083BF83B7816083BF88957B
:103B700083B78E7F83BF1092AF011092AE01809108
:103B80001302882311F00E94831C109213020E94DA
:103B9000D71C08950F93FC0113AE14AE15AE049616
:103BA0000E9452240F910895BF92CF92DF92EF921C
:103BB000FF920F931F93CF93DF936C01E62EB42EE9
:103BC000F22EE8010CC0FE010491C6016E2D4B2DB2
:103BD00020E00E94FE232196FA94F8E0EF0EFF20E9
:103BE00091F7DF91CF911F910F91FF90EF90DF90B0
:103BF000CF90BF9008958F929F92AF92BF92CF9235
:103C0000DF92EF92FF920F931F93CF93DF935C01AC
:103C1000862EC42E922ED02EC22FD0E09E0183E09D
:103C2000220F331F8A95E1F7C5010E94341E8823B5
:103C300061F40DC0C501682D4C2D292D87010E940E
:103C4000D41DEC0EFD1EC394DA94DD2099F7DF91AC
:103C5000CF911F910F91FF90EF90DF90CF90BF9089
:103C6000AF909F908F9008950F93FC014150040FE7
:103C70004F5F94A986A9841718F0091728F402C089
:103C8000091798F0041788F46150260F6F5F93A905
:103C900085A9861718F0291718F005C0291728F0EC
:103CA00080E0261718F481E001C080E00F910895AC
:103CB000FB010480F581E02D61E020E030E0099512
:103CC0000895FB010480F581E02D63E020E030E001
:103CD00009950895FB010480F581E02D64E040E042
:103CE00020E030E009950895FB010480F581E02D86
:103CF00064E041E020E030E009950895FB01048094
:103D0000F581E02D62E020E030E009950895FB01A7
:103D10000480F581E02D65E020E030E0099508950C
:103D2000FB010480F581E02D66E009950895CF92AE
:103D3000DF92EF92FF920F931F93CF93DF937C015B
:103D4000EB016A0100E0F6011491002361F41F3FCA
:103D500011F401E045C0C701BE01412F0E94871E3A
:103D60008823F1F541C01F3F41F4C701BE014FEF69
:103D70000E94871E882399F537C01E3F11F481E009
:103D800034C0103F60F5103E38F01F70C701BE010F
:103D9000412F0E947E1E23C0103D38F01F70C701C6
:103DA000BE01412F0E94611E1AC0103C80F0C70165
:103DB000BE010E946A1E1295107F1E5F812F90E047
:103DC0000E949B1FC701BE010E94741E04C01E3BBF
:103DD00030F417FD04C0812F90E00E949B1F00E08B
:103DE0000894C11CD11CAFCF80E0DF91CF911F910F
:103DF0000F91FF90EF90DF90CF9008951F93CF9396
:103E0000DF93EC01A39610E088818F3F39F061E0E9
:103E10000E942C28888161E00E94B9281F5F2196AA
:103E20001D3091F7DF91CF911F910895FC01E60FAE
:103E3000F11D83A18F3F19F0642F0E94B9280895C6
:103E40000F931F93CF93DF93EC01162F042F643051
:103E500009F445C0653040F4623081F1633080F58B
:103E6000613009F062C009C0663009F445C06630AF
:103E7000E8F1673009F059C04CC00E94FE1E8FE087
:103E800061E00E942C288FE060E00E94B92880E168
:103E900061E00E942C2880E160E00E94B92881E165
:103EA00061E00E942C2881E161E00E94B9281CBCDD
:103EB00080E58CBD0230C8F51DBD37C061E014C07F
:103EC000442319F462E041E007C064E040E00E944E
:103ED000161FCE0162E040E00E94161F26C08BA193
:103EE0008F3F19F1CE0160E0402FF6CF4EBD0DB4EB
:103EF00007FEFDCF8EB519C0F90108C080818EBDC7
:103F00000DB407FEFDCF31968EB501500023B1F7F9
:103F10000CC0F90108C084918EBD0DB407FEFDCF21
:103F20008EB5319601500023B1F781E0DF91CF913A
:103F30001F910F9108952EEC37E004C0F9013197DD
:103F4000F1F701970097D1F70895AF92BF92DF92F2
:103F5000EF92FF920F931F93CF93DF937C01EB01BE
:103F6000D42E59018FE0481791F1E5E14E1779F011
:103F7000FAE04F1709F048C0C70142E00E94581EFE
:103F8000C701BE0145E156E10E94971E3DC00A816E
:103F90001B81C70147E356E10E94971EF801448147
:103FA000406BC701BE010E94871EC701BE0141E0F0
:103FB0000E947E1EC801B701AE010E94D024882352
:103FC00049F1C701BE0140E00E94611E1DC0C7014A
:103FD00041E00E94611EC701BE0140E00E947E1EBA
:103FE000C701BE0141E80E94871EF5014081469548
:103FF0004695C701BE010E94871EC701BE0140E071
:104000000E94611E81E006C0C701BE014D2D9501D1
:104010000E943B25DF91CF911F910F91FF90EF9070
:10402000DF90BF90AF900895FC01E60FF11D8491E1
:10403000382F20E03196E4912E0F311DC9010895EB
:10404000FC01849108950E942020882321F0823071
:1040500011F083E0089586E0089566E00E94142040
:10406000089568E00E9414200895FC013A96E491B6
:104070008E2F0895FC013B96E4918E2F08959F9218
:10408000AF92BF92CF92DF92EF92FF920F931F9366
:10409000CF93DF93EC01C62EFC80ED800F2D1E2DFB
:1040A0008F2D9E2D0E942020B82E8F2D9E2D0E9498
:1040B0002320982E81E0B81619F48FE0A82E02C0B4
:1040C000AA24AA948F2D9E2D0E943A20D82E80E6F5
:1040D0008C1558F48F2D9E2D0E943120009729F0C9
:1040E000F801E80FF91F81E614C080E48C1558F43C
:1040F0008F2D9E2D0E942D20009729F0F801E80FAA
:10410000F91F81E406C08F2D9E2D0E943520F801F5
:104110007196DC1408F445C0D81608F442C0282F64
:10412000492D50E094919F3F11F4319636C02C15E3
:1041300009F02BC0BB2019F082E0B81681F48491FD
:104140008B8B319684918C8B32968491888B3196AF
:104150008491898B3196849135978A8B29C0892FD8
:104160008F7082508A8B92959F70998B3196849133
:10417000982F9F709C8B82958F708B8B319684913A
:10418000329782958F70888B13C0329684913297C4
:104190008A21E80FF11DE40FF51F2D1511F02F5F97
:1041A000C1CF188A1B8A1C8A198A1A8AE0E0F0E0BB
:1041B000CF01DF91CF911F910F91FF90EF90DF9092
:1041C000CF90BF90AF909F900895DC011496ED9131
:1041D000FC911597309709F438C057968C915797F2
:1041E000882339F43596849158968C93589737964E
:1041F0000AC0813011F43F9601C03D9684915896D3
:104200008C9358973196849159968C9359975896D8
:104210008C915897282F332727FD309559968C91EC
:104220005997992787FD9095281B390B5A968C91A1
:104230005A97803441F0289F9001112496E03695DA
:1042400027959A95E1F75B962C930895FC01178AC0
:104250000E94E520089580E008952BE231E2FC0100
:10426000368B258B0895FC01808D8F5F089523E3A5
:1042700031E2FC01368B258B0895EF92FF921F935C
:10428000CF93DF937C01EB0110E06881662341F05E
:10429000C7010E943F20F7018089180F2196F5CFB2
:1042A000812FDF91CF911F91FF90EF900895EF92B2
:1042B000FF921F93CF93DF937C01EB0110E0FE018F
:1042C0006491662341F0C7010E943F20F701808975
:1042D000180F2196F4CF812FDF91CF911F91FF907E
:1042E000EF900895CF93DF93EC018C819D81861729
:1042F000970749F07D836C83CE010E94E5208BE215
:1043000091E29E8B8D8BDF91CF9108954F925F92BA
:104310006F927F928F929F92AF92BF92CF92DF92D5
:10432000EF92FF920F931F93CF93DF937C01062FA1
:10433000B42E622F0E943F20EC01009711F480E020
:104340003EC0F701C480D580138974888188800EAF
:1043500082899B2C9718981AC701682D492D212F07
:10436000072D0E94341E882341F1C6010E9423209C
:1043700067E0A62EA10EA694A694A6946E01C80E80
:10438000D11CBB244A2C552411C0FE010491C70145
:10439000612F462D20E00E94FE232196185F9E018A
:1043A0002C192A1590F3C40CD51CB3946B2C690CF2
:1043B000B71418F4E601182DF2CFF7018089DF91C8
:1043C000CF911F910F91FF90EF90DF90CF90BF9012
:1043D000AF909F908F907F906F905F904F900895D7
:1043E000DF92EF92FF920F931F93CF93DF938C0195
:1043F000D62EE42EE901DC015596ED91FC915697FD
:104400000995E80EFF24FE012491222349F0C801FA
:104410006D2D4E2D0E948621D80EF80E2196F3CFD9
:104420008F2DDF91CF911F910F91FF90EF90DF9033
:104430000895DF92EF92FF920F931F93CF93DF9334
:104440008C01D62EE42EE901DC015596ED91FC910C
:1044500056970995E80EFF2408C0C8016D2D4E2D12
:104460000E948621D80EF80E219628812223A9F7D2
:104470008F2DDF91CF911F910F91FF90EF90DF90E3
:104480000895DF92EF92FF920F931F938C01E62E17
:10449000F42ED22EDC015596ED91FC91569709959C
:1044A000F80EC8016E2D4F2D2D2D0E9486211F91D3
:1044B0000F91FF90EF90DF900895AF92BF92CF924F
:1044C000DF92EF92FF920F931F93CF93DF93EC0154
:1044D000122F261718F4D62ED21A02C0D22ED61AB0
:1044E000041718F4C42EC01A02C0C02EC41ADC145B
:1044F00060F4842F462F682F802F012F182F8C2DCA
:10450000CD2CD82EAA24A39401C0AA24161730F4C7
:10451000812F162F682F802F042F482F401718F057
:10452000BB24BA9402C0BB24B394FD2CF694062F8E
:10453000E42E11C0AA2021F4CE01602F4E2D03C01D
:10454000CE016E2D402F0E94F523FC18F7FE02C00D
:10455000EB0CFD0C0F5F101768F7DF91CF911F91E7
:104560000F91FF90EF90DF90CF90BF90AF900895A4
:10457000FB01A081B181FD0109950895EF92FF92A1
:104580000F931F938C017B01DC01D196ED91FC917F
:10459000D29782E00995D701ED91FC91C801B7014E
:1045A0004AE020E030E00995F82ED801D196ED914F
:1045B000FC91D29783E00995D801D196ED91FC91B9
:1045C000D29780E009958F2D1F910F91FF90EF906A
:1045D0000895EF92FF920F931F938C017B01DC01F2
:1045E000D196ED91FC91D29782E00995D801D196B0
:1045F000ED91FC91D29781E00995D701ED91FC9165
:10460000C801B70144E120E030E0099598012D5C34
:104610003F4FD701ED91FC91C801B70147E10995E2
:10462000D801D196ED91FC91D29780E009951F9128
:104630000F91FF90EF900895FF920F931F93CF93E8
:10464000DF93EC018B01E9A9FAA982E00995E9A9B8
:10465000FAA981E00995D801ED91FC91CE01B8014C
:1046600045E120E030E00995F82E882351F09E01C5
:104670002D5C3F4FD801ED91FC91CE01B80147E18F
:104680000995E9A9FAA980E009958F2DDF91CF91CD
:104690001F910F91FF9008950F931F93FC01DB0171
:1046A000448F258F0D911C9142E37C969F01F80168
:1046B00009951F910F910895EF920F93CF93DF9378
:1046C000FC01448F258F078FE68EEB01A881B9810D
:1046D0004BE37C969F01FD010995DF91CF910F91EE
:1046E000EF900895DF93CF930F92CDB7DEB7FB0124
:1046F000A081B18146E49E012F5F3F4FFD010995E6
:1047000089810F90CF91DF910895DF93CF930F921E
:10471000CDB7DEB7FB01A081B18147E49E012F5FD9
:104720003F4FFD01099589810F90CF91DF91089549
:10473000FB01A081B18148E420E030E0FD01099552
:1047400008950F931F938C01DC0112966D917C915B
:1047500013970E947223F801808362817381C801DC
:104760000E948523D80111968C93119712966D9112
:104770007C911397C8010E949823F80183870280D7
:10478000F381E02DA081B181C801BF0147E10D5C3B
:104790001F4F9801FD0109951F910F910895CF9327
:1047A000DF93EC016A817B810E94BE22882321F085
:1047B000CE010E94A12381E0DF91CF910895FC01F9
:1047C000628173810E94E9220895CF93DF93EC0107
:1047D000EE85FF85309709F009956A817B81CE01CE
:1047E0000E941C23DF91CF910895FC01362F242FC6
:1047F00062817381432F0E944C230895EF920F939F
:10480000FC01362F542FA22FE02E62817381432F9B
:10481000252F0A2F0E945C230F91EF900895FC0131
:1048200060A30895FC018385803321F48FEF80A37A
:1048300081A30895883211F48FEF05C0823011F002
:1048400081E001C083E080A30895FC0110A20895D7
:104850001F93CF93DF93EC011D821C821F821E8267
:10486000198681E0888782E28A871F861E86FE017C
:10487000B39680E09FEF91938F5F8E30E1F711E068
:1048800018A3CE010E942D211F8B188E198E80E453
:104890008A8F1B8E85E197E29AAB89ABDF91CF912E
:1048A0001F910895BF92CF92DF92EF92FF920F93E4
:1048B0001F937C016B01142FB22E0E942824F70154
:1048C000D382C28215A3B4A203A3C7010E94CF233F
:1048D0001F910F91FF90EF90DF90CF90BF900895C0
:1048E000FC01128280818150838314820895FC012F
:1048F00020818281820F82839181891710F080E06C
:10490000089584818F5F84838381820F891710F0DB
:10491000892F8150838381E00895FC01A681B781AE
:1049200085819D01280F311DC9011D92A817B90766
:10493000E1F70895DC01FB01108212968C91129729
:10494000818315968C9115978150828313968C9153
:1049500083830895DC01FB0121818381813021F073
:10496000833029F0322F05C0322F385F02C0322F3A
:10497000285040E013968C911397821708F041E07D
:1049800050E012968C91381708F051E090E0321701
:1049900008F491E0892F8423942B9523892B089583
:1049A000FC01CB0126813781BA0145810E94901E0E
:1049B0000895FC01A681B7818281481B477081E080
:1049C00090E001C0880F4A95EAF7A60FB11D9C91AF
:1049D000222311F0982B02C0809598239C93089570
:1049E000FC01DB0111964C9111978281481760F010
:1049F0008381841748F06C918581681728F4CF0172
:104A000014962C910E94D9240895CF92DF92FF92A0
:104A10000F931F93CF93DF936C01EB01FA808B818F
:104A2000813061F0813028F0823059F0833019F400
:104A30000AC001E001C000E010E007C000E011E0A2
:104A400004C00FEFF9CF00E01FEFF7FE04C0C6016E
:104A5000BE010E94F0248881800F88838981810FA4
:104A60008983FF0C91F7DF91CF911F910F91FF90F8
:104A7000DF90CF9008950F931F93CF93DF93FB01A7
:104A80008901C281D3814233D1F0433338F44531B7
:104A900011F1473149F1443189F516C0463449F1E5
:104AA000473449F14B3351F5CE01B9010E94AA2494
:104AB000882321F1CE01B8010E9405251FC0CE0137
:104AC000B9010E94F0241AC0CE010E948D24CE01AB
:104AD0000E94702413C0CE010E947724882379F0AD
:104AE000CE010E948D240AC0CE01B9010E949A24F1
:104AF00005C08D8101C08981F801808381E0DF914B
:104B0000CF911F910F910895CF92DF92EF92FF9274
:104B10000F931F93CF93DF93EC01C62ED42EE22E7A
:104B2000F42E122F0AC0CE016C2D4F2D21E00FEF75
:104B30000E94FE23185088E0F80E1830A0F79E2D32
:104B400097704E2D487F4D0D992381F087E098276F
:104B50009F5F97700FEF10E002C0000F111F9A9532
:104B6000E2F7CE016C2D21E00E94FE23DF91CF9170
:104B70001F910F91FF90EF90DF90CF900895EF92EB
:104B8000FF920F931F93CF93DF93EC01162FF42E18
:104B9000E22E21E00E2D0E94341E882331F0CE013A
:104BA000612F4F2D2E2D0E948425DF91CF911F91D3
:104BB0000F91FF90EF900895CF92DF92EF92FF92C6
:104BC0000F931F93CF93DF93EC01D62EC42EE22ECA
:104BD000F62E122F0AC0CE016F2D4C2D20E00FEFC4
:104BE0000E94FE23185088E0F80E1830A0F79E2D82
:104BF00097706E2D687F6D0D992381F087E098275F
:104C00009F5F97700FEF10E002C0000F111F9A9581
:104C1000E2F7CE014C2D20E00E94FE23DF91CF91E0
:104C20001F910F91FF90EF90DF90CF900895EF923A
:104C3000FF920F931F93CF93DF93EC01E62E142F77
:104C4000F22ECE016E2D412F2F2D0E94DC251F5FED
:104C50000150B9F7DF91CF911F910F91FF90EF9025
:104C60000895DF92EF92FF920F931F93CF93DF93FC
:104C7000EC01162FF42EE22E0E94341E882331F010
:104C8000CE01612F4F2D2E2D0E941726DF91CF913F
:104C90001F910F91FF90EF90DF90089580E00895AD
:104CA000AF92BF92CF92DF92FF920F931F93CF9359
:104CB000DF936C01FB01F42EE901A280B38082E353
:104CC000481709F450C0841760F08CE2481709F4C3
:104CD0004AC08DE2481709F458C087E1481759F4D3
:104CE00011C086E44817A1F187E44817B1F18BE3BE
:104CF000481709F44AC0C601B5014F2D9E010E9414
:104D0000B8225FC0C601B50147E10E94B822C601C2
:104D1000B5010E947223FA80F094F80EC601B50125
:104D20000E94722308810095080FC601B5010E94F8
:104D300085231B811095180FC601B5010E9485239C
:104D400099819095980F9B8319830A83F88238C0C4
:104D5000C601B5010E94722304C0C601B5010E94BC
:104D6000852388832DC0C601B5010E948523082FA5
:104D700019811095C601B5010E9472239881909502
:104D8000980F9883100F198315C0C601B5010E94B2
:104D90008523082F19811095C601B5010E94722341
:104DA00098819095980F9883100F19838B818E5F4F
:104DB00083708B83C601B5014F2D9E010E94B822DE
:104DC00081E0DF91CF911F910F91FF90DF90CF9005
:104DD000BF90AF900895FC018281938121E08C32D5
:104DE000920741F090932F0180932E018CE291E085
:104DF0009383828380E596E290932D0180932C012A
:104E0000CF010E94A1230895FC01A281B38181E01A
:104E1000AC32B80749F412968D919C911397938305
:104E20008283CF010E94A12308950895F999FECFAE
:104E300072BD61BDF89A80B50895F999FECF1FBA89
:104E400072BD61BD40BD0FB6F894FA9AF99A0FBED3
:104E500008951F920F920FB60F9211242F933F9334
:104E60004F935F936F937F938F939F93AF93BF9372
:104E700020918302309184024091850250918602F4
:104E800070918702DA01C9010296A11DB11D672F39
:104E90006A5F6D3730F06D57DA01C9010396A11DC5
:104EA000B11D609387028093830290938402A09344
:104EB0008502B093860280917F0290918002A0913A
:104EC0008102B09182020196A11DB11D80937F02E3
:104ED00090938002A0938102B0938202BF91AF9120
:104EE0009F918F917F916F915F914F913F912F9102
:104EF0000F900FBE0F901F9018959B01AC017FB7CC
:104F0000F89480917F0290918002A0918102B091EB
:104F1000820266B5A89B05C06F3F19F00196A11DDE
:104F2000B11D7FBFBA2FA92F982F8827860F911DFB
:104F3000A11DB11D63E0880F991FAA1FBB1F6A95B1
:104F4000D1F7BC012DC0FFB7F89480917F029091FA
:104F50008002A0918102B0918202E6B5A89B05C0B3
:104F6000EF3F19F00196A11DB11DFFBFBA2FA92F68
:104F7000982F88278E0F911DA11DB11DE3E0880F8A
:104F8000991FAA1FBB1FEA95D1F7861B970B885E56
:104F90009340C8F2215030404040504068517C4F0F
:104FA000211531054105510571F60895789484B5B0
:104FB000826084BD84B5816084BD85B5826085BD15
:104FC00085B5816085BDEEE6F0E0808181608083FB
:104FD000E1E8F0E0108280818260808380818160DE
:104FE0008083E0E8F0E0808181608083E1E9F0E0A7
:104FF000808182608083808181608083E0E9F0E04D
:10500000808181608083E1ECF0E080818460808336
:10501000808182608083808181608083E3ECF0E026
:10502000808181608083E0ECF0E080818260808319
:10503000E2ECF0E0808181608083EAE7F0E080814B
:1050400084608083808182608083808181608083AE
:105050008081806880830895CF93DF93482F50E04C
:10506000CA01865F954EFC0134914551564EFA01B6
:105070008491882369F190E0880F991FFC01EF5318
:10508000F64EA591B491FC01E153F64EC591D49131
:10509000662351F42FB7F8948C91932F9095892320
:1050A0008C93888189230BC0623061F42FB7F89408
:1050B0008C91932F909589238C938881832B88835F
:1050C0002FBF06C09FB7F8948C91832B8C939FBF02
:1050D000DF91CF910895883071F1893068F4823082
:1050E00031F1833020F4813009F042C01DC083309B
:1050F00089F08430E9F512C08B3059F18C3028F4F6
:105100008930E9F08A30A1F51EC08C3031F18E3043
:1051100079F529C0809180008F7703C0809180004D
:105120008F7D80938000089584B58F7702C084B509
:105130008F7D84BD0895809190008F7707C0809106
:1051400090008F7D03C080919000877F80939000B6
:1051500008958091C0008F7703C08091C0008F7D3B
:105160008093C00008958091C200877F8093C20021
:105170000895FF920F931F93F62E482F50E0CA0117
:10518000875D954EFC012491CA01865F954EFC0116
:1051900014914551564EFA0104910023C9F022237F
:1051A00019F0822F0E946B28E02FF0E0EE0FFF1F16
:1051B000E153F64EA591B4919FB7F894FF2021F4E6
:1051C0008C911095812302C08C91812B8C939FBF71
:1051D0001F910F91FF9008950F931F93482F50E058
:1051E000CA01875D954EFC012491CA01865F954EE8
:1051F000FC0104914551564EFA011491112319F402
:1052000020E030E015C0222319F0822F0E946B2885
:10521000812F90E0880F991F8352964EFC01A59133
:10522000B4918C9120E030E0802311F021E030E057
:10523000C9011F910F910895FC0191818081813AEC
:1052400031F4913089F080E0933089F40DC08132DF
:1052500069F49B3021F482818093320105C09A3039
:1052600029F482818093330181E0089580E00895DC
:1052700008950895EF92FF920F931F938C01E62EED
:10528000DC01ED91FC910480F581E02D0995F82E6B
:10529000D801ED91FC910680F781E02DC8016E2DBB
:1052A00009958F2D90E01F910F91FF90EF90089539
:1052B0001092880210928C0210928B0280E591E08D
:1052C00090938A02809389020895EF92FF920F9340
:1052D0001F93DF93CF930F92CDB7DEB789838B01F6
:1052E0007A0184E0BE016F5F7F4F41E050E00E9491
:1052F000702B84E4B801A7010E94702B0F90CF910E
:10530000DF911F910F91FF90EF90089582E048E0A8
:1053100050E00E9465290895FC01168217821086CC
:1053200011861286138614823496BF010E94862944
:105330000895DC01683810F0685829C0E62FF0E0C5
:1053400067FF13C0E058F04081E090E002C0880F92
:10535000991FEA95E2F7809514962C9114972823CB
:1053600014962C93149760E012C0EF52F54E64919E
:10537000662319F420E030E01DC067FF08C01496D2
:105380008C9114978D7F14968C9314976F77FD01F1
:1053900090E0662321F08681861709F416829F5FCC
:1053A00031969630B1F7CD011496BD010E94862941
:1053B00021E030E0C9010895CF93DF93DC01683824
:1053C00010F0685825C0E62FF0E067FF12C0E058E3
:1053D000F04081E090E002C0880F991FEA95E2F763
:1053E00014962C911497282B14962C93149760E004
:1053F0000FC0EF52F54E64916623D9F167FF08C0E4
:1054000014968C911497826014968C9314976F77EE
:1054100016968C9116978617A9F117968C91179767
:10542000861781F118968C911897861759F119965D
:105430008C911997861731F11A968C911A978617C5
:1054400009F11B968C911B978617E1F0ED01E0E0C6
:10545000F0E09E2F8E81882321F4EA0FFB1F6683E4
:1054600006C09F5F31962196E630F10591F79630A0
:1054700049F481E090E013969C938E93129720E07C
:1054800030E007C0CD011496BD010E94862921E0BD
:1054900030E0C901DF91CF91089580E863E57AE1BA
:1054A00045E650E00E94EB2A0895FC0180818F5F61
:1054B000808380E868EB7AE149E150E00E94EB2AC2
:1054C0000895CF93DF930E94D6278DE992E00E9442
:1054D000522B0E94DA1AC0E0D0E00E94731D209780
:1054E000E1F30E940000F9CFCF92DF92EF92FF929A
:1054F0000F931F93CF93DF937C016B018A01C0E070
:10550000D0E00FC0D6016D916D01D701ED91FC91F6
:105510000190F081E02DC7010995C80FD91F0150F6
:1055200010400115110571F7CE01DF91CF911F9148
:105530000F91FF90EF90DF90CF900895282F8091EA
:1055400097028823C1F057FF1AC015C0289890937E
:1055500096028091F1008193E217F307B9F74115A4
:10556000510539F08091F200882319F48BE680937D
:10557000E800AFBF02C04FEF5FEFCA010895AFB7B9
:10558000F89427702093E9008091F200282F30E0F2
:10559000241735070CF4A901FB019B01240F311DD1
:1055A00094E6DACFDF93CF930F92CDB7DEB7BE018B
:1055B0006F5F7F4F41E050E00E949E2A019719F0F3
:1055C0002FEF3FEF03C08981282F30E0C9010F90F2
:1055D000CF91DF910895FF920F931F93F82E142F10
:1055E000052F40919A0250919B02212F302FC90123
:1055F000DC01FB016EEF29C0F7FE02C0949101C0EF
:105600009081209198023091990224173507ACF4CB
:105610008091E8008570E1F38091E80082FF03C08B
:105620002FEF3FEF17C09093F100C90101968F73E0
:105630009070892B11F46093E8002F5F3F4F3093F7
:10564000990220939802119731961097A9F6812F0D
:10565000902F9C01C9011F910F91FF9008959C010B
:105660008091E80082FFFCCFF901260F311D03C0B5
:105670008091F1008193E217F307D1F7289884E62F
:10568000809396028BEF8093E800CB01089580937E
:10569000E9008091F200882319F08AE38093E80002
:1056A000089508951092970281E08093D70080EAD0
:1056B0008093D80082E089BD09B400FEFDCF61E08F
:1056C00070E080E090E00E947D2780E98093D80020
:1056D0008CE08093E2001092E000559A209A0895A1
:1056E0005F926F927F928F929F92AF92BF92CF9272
:1056F000DF92EF92FF920F931F93CF93DF93E82EE9
:10570000842E752E80919702882371F18B01242FAE
:10571000352FC901EC017AEFF72E67E0962E9E2017
:1057200050E4552E8E2D90E040E2A42EB12CA822FC
:10573000B9223AE3632E20E4C22ED12CC822D9220A
:1057400058C09FB7F8949092E9008091E80085FDD9
:1057500002C020E004C08091F200252D281B9FBFCD
:10576000222361F4FA9419F42FEF3FEF4DC061E06A
:1057700070E080E090E00E947D273BC0822F90E0A7
:10578000C817D9070CF42C2FC21BD1094FB7F894B6
:105790009092E900A114B10421F406C01092F10026
:1057A00021502223D9F719C0E7FC03C0F801922F3A
:1057B00010C0C801322F06C0FC010196E491E093AD
:1057C000F10031503323C1F706C081918093F1007D
:1057D00091509923D1F7020F111D8091E80085FFA8
:1057E00005C0209729F4C114D10411F06092E8009B
:1057F0004FBF209709F0A5CF5D9884E6809395026E
:10580000282D372DC9019C01C901DF91CF911F912E
:105810000F91FF90EF90DF90CF90BF90AF909F904F
:105820008F907F906F905F9008951F920F920FB6A8
:105830000F9211242F933F934F935F936F937F9316
:105840008F939F93AF93BF93EF93FF938091E1006A
:105850001092E100982F83FF0FC01092E90081E0C1
:105860008093EB001092EC0082E38093ED001092A5
:10587000970288E08093F00092FF34C083E0809329
:10588000E9008091F200882319F08AE38093E80010
:105890008FB7F89492E09093E9009091F2008FBF57
:1058A000992321F082EE92E00E94722E809195025F
:1058B000882351F0809195028150809395028091C8
:1058C0009502882309F45D9A80919602882351F00D
:1058D000809196028150809396028091960288234F
:1058E00009F4289AFF91EF91BF91AF919F918F9109
:1058F0007F916F915F914F913F912F910F900FBECC
:105900000F901F9018950F931F93DF93CF930F92D3
:10591000CDB7DEB719828E010F5F1F4FC8010E94FD
:10592000982EC8010E94552A898190E00F90CF914E
:10593000DF911F910F9108951F920F920FB60F9252
:105940001124EF92FF921F932F933F934F935F93F6
:105950006F937F938F939F93AF93BF93EF93FF9337
:10596000DF93CF93CDB7DEB76197DEBFCDBF109287
:10597000E9008091E80083FF0FC1FE0131969E018E
:10598000275F3F4F03C08091F1008193E217F30737
:10599000D1F7289884E68093960282EF8093E800FE
:1059A000998197FF05C08091E80080FFFCCF03C07C
:1059B0008EEF8093E800292F30E0C9018076907047
:1059C000892B09F0C2C08A81882329F41092F10042
:1059D0001092F100D6C0813009F4D3C0833009F4AD
:1059E000D0C0853049F48091E80080FFFCCF8B81E6
:1059F00080688093E300C5C0863009F07CC01C81BC
:105A0000EF80F8841230C1F51092E90010929902EB
:105A10001092980210929B0210929A020E94832C7C
:105A200099E0FE013996DF01292F1D922A95E9F7A9
:105A300099871A8791E09E8790E8988B9AEF998BC7
:105A40002091980230919902275F3F4F3C872B8726
:105A50008D871092E9001092990210929802F092AC
:105A60009B02E0929A0280E0BF0149E050E00E9470
:105A7000EB2A0E94832C85C01092E90010929902B3
:105A800010929802F0929B02E0929A02123241F434
:105A900082E290E00E944D2A892B09F476C071C001
:105AA000113079F488E0E816F10419F481E080936C
:105AB0009C0280919C02882309F06BC0EFE8FBE117
:105AC00013C0133009F061C08B81882319F4E1E51C
:105AD000FBE10AC0823019F4E5E5FBE105C0813045
