:1070000055C000006EC000006CC000006AC00000E7
:1070100068C0000066C0000064C0000062C00000DC
:1070200060C000005EC00000D6C400005AC000006E
:1070300058C0000056C0000054C0000052C00000FC
:1070400050C0000097C000004CC000004AC00000C3
:1070500048C0000046C0000044C0000042C000001C
:1070600040C000003EC000003CC000003AC000002C
:1070700038C0000036C0000034C0000032C000003C
:1070800030C000002EC000002CC000002AC000004C
:1070900028C0000026C0000024C0000022C000005C
:1070A00020C000001EC000001CC0000011241FBE34
:1070B000CFEFDAE0DEBFCDBF11E0A0E0B1E0E8EF56
:1070C000FEE702C005900D92A63BB107D9F711E08B
:1070D000A6EBB1E001C01D92AF3CB107E1F725D3AB
:1070E00009C78ECF84E08093E9000DC08091E8004D
:1070F0008B778093E80003C08EB3882359F080918A
:10710000E80082FFF9CF8091E80085FFEFCF809102
:10711000F100089580E0089593E09093E900909144
:10712000E80095FF0AC08093F1005D9884E690E046
:107130009093BD018093BC0108959091E8009E77E3
:107140009093E80003C09EB3992329F09091E80042
:1071500090FFF9CFE8CF0895F89410926F00109245
:10716000810081E085BF15BE47985D9A289A0C94EE
:10717000000008951F920F920FB60F9211242F93C3
:107180008F939F93EF93FF9310928500109284004A
:107190008091BC019091BD01009741F001979093BF
:1071A000BD018093BC01892B09F45D9A8091BA01DD
:1071B0009091BB01009741F001979093BB018093A0
:1071C000BA01892B09F4289A8091B6019091B701F0
:1071D00001969093B7018093B601E0E0F0E08591CD
:1071E0009491019649F08091B8019091B90101966E
:1071F0009093B9018093B801FF91EF919F918F9186
:107200002F910F900FBE0F901F90189542E061ECE8
:1072100082E05CD342E161E883E058D342E160E878
:1072200084E054C38091C701982F9F77913239F53C
:107230009091C801903291F0913209F5813AF9F4B8
:107240008091E800877F8093E80067E070E082E04B
:1072500091E06FD48091E8008B770FC0813279F490
:107260008091E800877F8093E80067E070E082E02B
:1072700091E0BCD48091E8008E778093E800089577
:107280004F925F926F927F928F929F92AF92BF9236
:10729000CF92DF92EF92FF920F931F93CF93DF93E2
:1072A00084E08093E9008091E80082FF2DC2289855
:1072B00084E690E09093BB018093BA0113DF082F1E
:1072C000853481F48CEA9DE09093B9018093B801F4
:1072D00007B600FCFDCFF999FECF81E180935700FE
:1072E000E89503C0843521F4FDDE8DE015DFE3C1B0
:1072F0008C34D9F3803509F4F8CF843721F484E451
:107300000BDF80E0F3CF813611F489E5EFCF8134D4
:1073100081F4E8DEC82FE6DE90E0880F991F3C2F4D
:10732000330F20E0822B932BAA2797FDA095BA2F2D
:1073300096C1803711F483E5D9CF833549F4CDEA7E
:10734000D1E08991E9DE21E0C43BD207D1F7B3C196
:10735000863521F481E3E0DE80E3C8CF833731F462
:1073600087E8DADE85E9D8DE8EE1C0CF8536B9F46C
:10737000E0E0F0E083E095E080935700E89507B601
:1073800000FCFDCF90935700E89507B600FCFDCFB9
:10739000E058FF4FE11520E7F20771F7A6CF8237DB
:1073A00019F4E1E0F0E00EC0863419F4E0E0F0E01A
:1073B00009C08E3419F4E3E0F0E004C0813539F4FB
:1073C000E2E0F0E089E08093570084918FCF82362D
:1073D00031F489E5A1DE80E09FDE80E887CF82344A
:1073E00019F0873609F0D1C01092B9011092B80196
:1073F00079DEC82E77DED82E75DE182F85548230C0
:1074000010F08FE373CFDC2D80E0C82FCD291092D0
:107410006F00073609F041C081E180935700E8957D
:10742000B12C01E037C0C090BF01D090C001E09006
:10743000C101F090C2011634B9F4EB2DF0E0EC2953
:10744000FD29849169DEBB2069F0E2E0CE0ED11CFB
:10745000E11CF11CC092BF01D092C001E092C101B9
:10746000F092C201B02615C0D701C601B695A79506
:107470009795879529D550DEF2E0CF0ED11CE11CFF
:10748000F11CC092BF01D092C001E092C101F09204
:10749000C2012197209739F674C08090BF01909067
:1074A000C001A090C101B090C201163409F057C0CC
:1074B00083E0F40180935700E89507B600FCFDCF08
:1074C0004EC0163439F5DD2009F14090BF015090CF
:1074D000C0016090C1017090C20104DEF82EE12C61
:1074E00097012C29F201090100935700E895112416
:1074F000F2E04F0E511C611C711C4092BF01509272
:10750000C0016092C1017092C20102C0EBDDC82EC1
:10751000D02623C0E7DD682F8091BF019091C00184
:10752000A091C101B091C201B695A7959795879595
:10753000D3D44091BF015091C0016091C1017091BD
:10754000C2014E5F5F4F6F4F7F4F4093BF0150931B
:10755000C0016093C1017093C201219703C0C12C87
:10756000D12C01E0209709F0ACCF163441F485E02E
:10757000F40180935700E89507B600FCFDCF8DE03D
:10758000CBDD82E080936F0096C0833471F4C091AC
:10759000BF01D091C001A6DD90E021E0FE010C0109
:1075A00020935700E8951124A0CE833611F5C090A2
:1075B000BF01D090C001E090C101F090C20192DD06
:1075C000B701A601416090E021E0FA010C0120938F
:1075D0005700E8951124F2E0CF0ED11CE11CF11CFC
:1075E000C092BF01D092C001E092C101F092C201ED
:1075F0007CCE8D3661F4E091BF01F091C00185E051
:1076000080935700E89507B600FCFDCF6ECE82351B
:1076100051F4E091BF01F091C001C591D4918D2F3B
:107620007BDD8C2F63CE843419F55CDD682F80916F
:10763000BF019091C001A091C101B091C201B69566
:10764000A7959795879548D48091BF019091C001E7
:10765000A091C101B091C2010296A11DB11D8093FC
:10766000BF019093C001A093C101B093C2013DCE70
:107670008436F1F4C090BF01D090C001E090C10108
:10768000F090C201D701C601B695A7959795879549
:107690001BD442DD22E0C20ED11CE11CF11CC092C1
:1076A000BF01D092C001E092C101F092C20103C0BB
:1076B0008B3109F0A6CE83E08093E9009091E80039
:1076C0008091E8008E778093E80095FD11C080914D
:1076D000E80080FD04C08EB38111F9CF15C0809100
:1076E000E8008E778093E80003C08EB3882361F0B2
:1076F0008091E80080FFF9CF84E08093E9008091D9
:10770000E8008B778093E800DF91CF911F910F9174
:10771000FF90EF90DF90CF90BF90AF909F908F90B1
:107720007F906F905F904F900895CF9330910008B5
:107730001092000824B714BE88E10FB6F894809325
:107740006000109260000FBE90E880E00FB6F894E1
:1077500090936100809361000FBE41E045BF82E0DD
:1077600085BF3F9A209A559A9093610010926100CC
:1077700047985D9A289A109289009AEF9093880012
:1077800080936F0083E080938100E0E0F0E08591DA
:107790009491019611F04093BE0121FF20C0809189
:1077A00000013817E1F0809300087894809101017E
:1077B000882339F08091B6019091B70188379140C4
:1077C000C8F31092010110920008F89481E08093B0
:1077D00001018091BE01882371F0BEDC0CC020FF46
:1077E00004C08091BE018111F8CF23FF04C08091B5
:1077F00000013813EECFD7D078941092B9011092CF
:10780000B801CEEF20C03CDD4ED38091B8019091FD
:10781000B901813A9F4010F0109201018091C3019B
:107820009091C40101969093C4018093C301292FC4
:1078300097FF03C05C2F591B252F220F281710F428
:10784000479801C0479A809101018111DCCF809156
:10785000E00081608093E0007FDC80E090E0CF91E9
:107860000895292F30E033272230310539F02330B5
:10787000310549F02130310589F00BC02EE330E0AD
:107880008DE591E01EC0882371F0813089F082304F
:10789000A1F020E030E080E090E013C022E130E091
:1078A0008BE991E00EC024E030E089E591E009C069
:1078B00022E230E085E391E004C02AE230E089E092
:1078C00091E0FA0191838083C90108958093E900D2
:1078D000EBEEF0E0808181608083EDEEF0E01082DD
:1078E0006093EC0040838091EE00881F8827881FFA
:1078F00008958091C70187FD05C08091E80080FF51
:107900000DC010C08091E80082FD04C08EB38111CB
:10791000F9CF08958091E8008B7707C08EB381116D
:10792000ECCF08958091E8008E778093E800089569
:107930000F931F93CF93DF9341D048D0C8EDD0E091
:1079400088818F77888388818068888388818F7D0C
:10795000888319BC1EBA1092C50100EE10E0F80130
:1079600080818B7F808388818160888342E060E0B2
:1079700080E0ACDFE1EEF0E080818E7F8083E2EE9C
:10798000F0E0808181608083808188608083F8015D
:1079900080818E7F8083888180618883DF91CF9111
:1079A0001F910F910895E7EDF0E080818160808361
:1079B0008AE482BF81E08093C601BACFE8EDF0E0AF
:1079C00080818E7F80831092E20008951092DA0009
:1079D0001092E10008951F920F920FB60F9211249A
:1079E0002F933F934F935F936F937F938F939F93C7
:1079F000AF93BF93EF93FF938091DA0080FF19C09C
:107A00008091D80080FF15C08091DA008E7F80932E
:107A1000DA008091D90019BC80FF09C082E089BDDD
:107A200009B400FEFDCF81E08EBB3CD202C01EBA7D
:107A300039D28091E10080FF17C08091E20080FF81
:107A400013C08091E2008E7F8093E2008091E2007B
:107A500080618093E2008091D80080628093D8009A
:107A600019BC85E08EBB1ED28091E10084FF2BC043
:107A70008091E20084FF27C019BC82E089BD09B46F
:107A800000FEFDCF8091D8008F7D8093D80080913B
:107A9000E1008F7E8093E1008091E2008F7E8093F1
:107AA000E2008091E20081608093E2008091C50154
:107AB000811104C08091E30087FF02C084E001C00F
:107AC00081E08EBBEFD18091E10083FF21C08091E6
:107AD000E20083FF1DC08091E100877F8093E10079
:107AE00082E08EBB1092C5018091E1008E7F809371
:107AF000E1008091E2008E7F8093E2008091E200BD
:107B000080618093E20042E060E080E0DFDECAD185
:107B1000FF91EF91BF91AF919F918F917F916F9165
:107B20005F914F913F912F910F900FBE0F901F903B
:107B300018954091CD015091CE014617570748F056
:107B40006115710539F44091E8004E774093E800E3
:107B500001C0BA01FC0140E032C08EB3882309F4B1
:107B600041C0853009F440C08091E80083FD38C0F1
:107B70008091E80082FD2EC08091E80080FF1FC048
:107B80009091F3008091F200392F20E0A901482B59
:107B9000CA0106C041914093F100615071090196FC
:107BA0006115710519F088309105A0F341E008973F
:107BB00009F040E08091E8008E778093E80061153D
:107BC000710559F64111C9CF05C08EB3882351F014
:107BD000853051F08091E80082FFF7CF80E0089572
:107BE00081E0089582E0089583E0089561157105AC
:107BF00029F44091E8004B774093E800AC0127C09E
:107C00008EB38823B1F1853071F18091E80083FD56
:107C10002CC08091E80082FFF3CFFA0107C0809169
:107C2000F1008193AF016150710961F0AF01909152
:107C3000F3008091F200392F20E0D901A82BCD016B
:107C4000892B69F78091E8008B778093E8006115B4
:107C50007105B1F68091E80080FD09C08EB38823DC
:107C600041F08530B9F783E0089581E0089580E020
:107C7000089582E00895EF92FF920F931F93CF93A0
:107C8000DF9300D0CDB7DEB7E7ECF1E08091F100F3
:107C9000819381E0EF3CF807C9F7C4DA8091E800EE
:107CA00083FFE9C08091C7019091C801953009F424
:107CB0006FC038F4913071F170F0933009F0DBC08F
:107CC00029C0983009F4AAC0993009F4B9C0963097
:107CD00009F0D1C083C0803809F4CDC0823809F0E2
:107CE000CAC08091CB019091CC0187709927809375
:107CF000E9009091EB001092E9008091E800877F05
:107D00008093E80095FB882780F98093F10010921A
:107D1000F1008FC0882319F0823009F0ACC08F7158
:107D2000823009F0A8C08091C90181112BC08091D7
:107D3000CB019091CC0187709927009709F49BC0E3
:107D40008093E9002091EB0020FF1CC02091C80126
:107D5000233021F48091EB00806212C09091EB00FF
:107D600090619093EB0021E030E001C0220F8A95F2
:107D7000EAF72093EA001092EA008091EB00886015
:107D80008093EB001092E9008091E800877F54C057
:107D9000811171C00091C9011091CA010F7711279B
:107DA000E02EFFB6F8948091E800877F8093E8008A
:107DB000A0DD8091E80080FFFCCF8091E300807817
:107DC000802B8093E30080688093E300EE2011F025
:107DD00083E001C082E08EBBFFBE4DC08058823080
:107DE00008F049C0AE014F5F5F4F6091CB018091B9
:107DF000C9019091CA0135DD009709F43CC020917A
:107E0000E800277F2093E800BC0189819A8191DEF8
:107E10008091E8008B778093E8002DC0803859F579
:107E20008091E800877F8093E8008091C50180936E
:107E3000F1008091E8008E778093E8005ADD1BC046
:107E4000811119C09091C9019230A8F48091E80085
:107E5000877F8093E8009093C5014BDD8091C50139
:107E6000811104C08091E30087FF02C084E001C05B
:107E700081E08EBBCBD98091E80083FF0AC080915E
:107E8000EB0080628093EB008091E800877F809315
:107E9000E8000F900F90DF91CF911F910F91FF900D
:107EA000EF9008950895CF938EB3882359F0C09131
:107EB000E900C7701092E9008091E80083FDDBDEE5
:107EC000C093E900CF910895F999FECF92BD81BD8D
:107ED000F89A992780B50895262FF999FECF1FBAF1
:107EE00092BD81BD20BD0FB6F894FA9AF99A0FBEE3
:087EF00001960895F894FFCFFC
:107EF8007701000000000000082A034F006E006FA1
:107F0800002D00530065006E0064006100690020C8
:107F18000020002000200020002000200020002059
:107F280000200000002203540068006F0074006302
:107F3800006F006E003000780035002000420061BC
:107F48000064006700650000000403090409023E9C
:107F5800000201008032090400000102020100054C
:107F680024001001042402040524060001070582E8
:107F7800030800FF09040100020A000000070504C5
:107F8800021000010705830210000112011001020E
:107F9800000008ADD35ECA0100020100014341544C
:067FA8004552494E410064
:040000030000700089
:00000001FF
